{
  "_format": "hh-sol-artifact-1",
  "contractName": "ERC721",
  "sourceName": "contracts/nft/ERC721.sol",
  "abi": [
    {
      "inputs": [
        {
          "internalType": "string",
          "name": "name_",
          "type": "string"
        },
        {
          "internalType": "string",
          "name": "symbol_",
          "type": "string"
        },
        {
          "internalType": "string",
          "name": "baseURI_",
          "type": "string"
        },
        {
          "internalType": "address",
          "name": "wallet_",
          "type": "address"
        }
      ],
      "stateMutability": "nonpayable",
      "type": "constructor"
    },
    {
      "anonymous": false,
      "inputs": [
        {
          "indexed": true,
          "internalType": "address",
          "name": "owner",
          "type": "address"
        },
        {
          "indexed": true,
          "internalType": "address",
          "name": "approved",
          "type": "address"
        },
        {
          "indexed": true,
          "internalType": "uint256",
          "name": "tokenId",
          "type": "uint256"
        }
      ],
      "name": "Approval",
      "type": "event"
    },
    {
      "anonymous": false,
      "inputs": [
        {
          "indexed": true,
          "internalType": "address",
          "name": "owner",
          "type": "address"
        },
        {
          "indexed": true,
          "internalType": "address",
          "name": "operator",
          "type": "address"
        },
        {
          "indexed": false,
          "internalType": "bool",
          "name": "approved",
          "type": "bool"
        }
      ],
      "name": "ApprovalForAll",
      "type": "event"
    },
    {
      "anonymous": false,
      "inputs": [
        {
          "indexed": true,
          "internalType": "address",
          "name": "previousOwner",
          "type": "address"
        },
        {
          "indexed": true,
          "internalType": "address",
          "name": "newOwner",
          "type": "address"
        }
      ],
      "name": "OwnershipTransferred",
      "type": "event"
    },
    {
      "anonymous": false,
      "inputs": [
        {
          "indexed": true,
          "internalType": "address",
          "name": "from",
          "type": "address"
        },
        {
          "indexed": true,
          "internalType": "address",
          "name": "to",
          "type": "address"
        },
        {
          "indexed": true,
          "internalType": "uint256",
          "name": "tokenId",
          "type": "uint256"
        }
      ],
      "name": "Transfer",
      "type": "event"
    },
    {
      "inputs": [],
      "name": "CANNOT_TRANSFER_TO_ZERO_ADDRESS",
      "outputs": [
        {
          "internalType": "string",
          "name": "",
          "type": "string"
        }
      ],
      "stateMutability": "view",
      "type": "function"
    },
    {
      "inputs": [],
      "name": "NOT_CURRENT_OWNER",
      "outputs": [
        {
          "internalType": "string",
          "name": "",
          "type": "string"
        }
      ],
      "stateMutability": "view",
      "type": "function"
    },
    {
      "inputs": [
        {
          "internalType": "address",
          "name": "market",
          "type": "address"
        }
      ],
      "name": "addApprovedMarket",
      "outputs": [],
      "stateMutability": "nonpayable",
      "type": "function"
    },
    {
      "inputs": [
        {
          "internalType": "address",
          "name": "to",
          "type": "address"
        },
        {
          "internalType": "uint256",
          "name": "tokenId",
          "type": "uint256"
        }
      ],
      "name": "approve",
      "outputs": [],
      "stateMutability": "nonpayable",
      "type": "function"
    },
    {
      "inputs": [
        {
          "internalType": "address",
          "name": "owner",
          "type": "address"
        }
      ],
      "name": "balanceOf",
      "outputs": [
        {
          "internalType": "uint256",
          "name": "",
          "type": "uint256"
        }
      ],
      "stateMutability": "view",
      "type": "function"
    },
    {
      "inputs": [],
      "name": "baseURI",
      "outputs": [
        {
          "internalType": "string",
          "name": "",
          "type": "string"
        }
      ],
      "stateMutability": "view",
      "type": "function"
    },
    {
      "inputs": [],
      "name": "buyNFT",
      "outputs": [],
      "stateMutability": "payable",
      "type": "function"
    },
    {
      "inputs": [
        {
          "internalType": "uint256",
          "name": "tokenId",
          "type": "uint256"
        }
      ],
      "name": "getApproved",
      "outputs": [
        {
          "internalType": "address",
          "name": "",
          "type": "address"
        }
      ],
      "stateMutability": "view",
      "type": "function"
    },
    {
      "inputs": [
        {
          "internalType": "uint256",
          "name": "_tokenId",
          "type": "uint256"
        }
      ],
      "name": "getInfoToken",
      "outputs": [
        {
          "components": [
            {
              "internalType": "address",
              "name": "owner",
              "type": "address"
            },
            {
              "internalType": "address",
              "name": "approval",
              "type": "address"
            },
            {
              "internalType": "string",
              "name": "URI",
              "type": "string"
            }
          ],
          "internalType": "struct ERC721.Info",
          "name": "",
          "type": "tuple"
        }
      ],
      "stateMutability": "view",
      "type": "function"
    },
    {
      "inputs": [
        {
          "internalType": "address",
          "name": "owner",
          "type": "address"
        },
        {
          "internalType": "address",
          "name": "operator",
          "type": "address"
        }
      ],
      "name": "isApprovedForAll",
      "outputs": [
        {
          "internalType": "bool",
          "name": "",
          "type": "bool"
        }
      ],
      "stateMutability": "view",
      "type": "function"
    },
    {
      "inputs": [
        {
          "internalType": "address",
          "name": "from",
          "type": "address"
        },
        {
          "internalType": "address",
          "name": "to",
          "type": "address"
        },
        {
          "internalType": "uint256",
          "name": "tokenId",
          "type": "uint256"
        }
      ],
      "name": "marketTransfer",
      "outputs": [],
      "stateMutability": "nonpayable",
      "type": "function"
    },
    {
      "inputs": [],
      "name": "maxSupply",
      "outputs": [
        {
          "internalType": "uint256",
          "name": "",
          "type": "uint256"
        }
      ],
      "stateMutability": "view",
      "type": "function"
    },
    {
      "inputs": [],
      "name": "name",
      "outputs": [
        {
          "internalType": "string",
          "name": "",
          "type": "string"
        }
      ],
      "stateMutability": "view",
      "type": "function"
    },
    {
      "inputs": [],
      "name": "owner",
      "outputs": [
        {
          "internalType": "address",
          "name": "",
          "type": "address"
        }
      ],
      "stateMutability": "view",
      "type": "function"
    },
    {
      "inputs": [
        {
          "internalType": "uint256",
          "name": "tokenId",
          "type": "uint256"
        }
      ],
      "name": "ownerOf",
      "outputs": [
        {
          "internalType": "address",
          "name": "",
          "type": "address"
        }
      ],
      "stateMutability": "view",
      "type": "function"
    },
    {
      "inputs": [
        {
          "internalType": "address",
          "name": "to",
          "type": "address"
        }
      ],
      "name": "safeMint",
      "outputs": [],
      "stateMutability": "nonpayable",
      "type": "function"
    },
    {
      "inputs": [
        {
          "internalType": "address",
          "name": "from",
          "type": "address"
        },
        {
          "internalType": "address",
          "name": "to",
          "type": "address"
        },
        {
          "internalType": "uint256",
          "name": "tokenId",
          "type": "uint256"
        }
      ],
      "name": "safeTransferFrom",
      "outputs": [],
      "stateMutability": "nonpayable",
      "type": "function"
    },
    {
      "inputs": [
        {
          "internalType": "address",
          "name": "operator",
          "type": "address"
        },
        {
          "internalType": "bool",
          "name": "approved",
          "type": "bool"
        }
      ],
      "name": "setApprovalForAll",
      "outputs": [],
      "stateMutability": "nonpayable",
      "type": "function"
    },
    {
      "inputs": [
        {
          "internalType": "bytes4",
          "name": "interfaceId",
          "type": "bytes4"
        }
      ],
      "name": "supportsInterface",
      "outputs": [
        {
          "internalType": "bool",
          "name": "",
          "type": "bool"
        }
      ],
      "stateMutability": "view",
      "type": "function"
    },
    {
      "inputs": [],
      "name": "symbol",
      "outputs": [
        {
          "internalType": "string",
          "name": "",
          "type": "string"
        }
      ],
      "stateMutability": "view",
      "type": "function"
    },
    {
      "inputs": [
        {
          "internalType": "uint256",
          "name": "tokenId",
          "type": "uint256"
        }
      ],
      "name": "tokenURI",
      "outputs": [
        {
          "internalType": "string",
          "name": "",
          "type": "string"
        }
      ],
      "stateMutability": "view",
      "type": "function"
    },
    {
      "inputs": [],
      "name": "totalSupply",
      "outputs": [
        {
          "internalType": "uint256",
          "name": "",
          "type": "uint256"
        }
      ],
      "stateMutability": "view",
      "type": "function"
    },
    {
      "inputs": [
        {
          "internalType": "address",
          "name": "from",
          "type": "address"
        },
        {
          "internalType": "address",
          "name": "to",
          "type": "address"
        },
        {
          "internalType": "uint256",
          "name": "tokenId",
          "type": "uint256"
        }
      ],
      "name": "transferFrom",
      "outputs": [],
      "stateMutability": "nonpayable",
      "type": "function"
    },
    {
      "inputs": [
        {
          "internalType": "address",
          "name": "_newOwner",
          "type": "address"
        }
      ],
      "name": "transferOwnership",
      "outputs": [],
      "stateMutability": "nonpayable",
      "type": "function"
    }
  ],
  "bytecode": "0x6080604052600060045560646005553480156200001b57600080fd5b5060405162003a2c38038062003a2c833981810160405281019062000041919062000250565b336000806101000a81548173ffffffffffffffffffffffffffffffffffffffff021916908373ffffffffffffffffffffffffffffffffffffffff16021790555083600190805190602001906200009992919062000117565b508260029080519060200190620000b292919062000117565b508160039080519060200190620000cb92919062000117565b5080600660006101000a81548173ffffffffffffffffffffffffffffffffffffffff021916908373ffffffffffffffffffffffffffffffffffffffff16021790555050505050620004c5565b8280546200012590620003d0565b90600052602060002090601f01602090048101928262000149576000855562000195565b82601f106200016457805160ff191683800117855562000195565b8280016001018555821562000195579182015b828111156200019457825182559160200191906001019062000177565b5b509050620001a49190620001a8565b5090565b5b80821115620001c3576000816000905550600101620001a9565b5090565b6000620001de620001d88462000330565b62000307565b905082815260208101848484011115620001f757600080fd5b620002048482856200039a565b509392505050565b6000815190506200021d81620004ab565b92915050565b600082601f8301126200023557600080fd5b815162000247848260208601620001c7565b91505092915050565b600080600080608085870312156200026757600080fd5b600085015167ffffffffffffffff8111156200028257600080fd5b620002908782880162000223565b945050602085015167ffffffffffffffff811115620002ae57600080fd5b620002bc8782880162000223565b935050604085015167ffffffffffffffff811115620002da57600080fd5b620002e88782880162000223565b9250506060620002fb878288016200020c565b91505092959194509250565b60006200031362000326565b905062000321828262000406565b919050565b6000604051905090565b600067ffffffffffffffff8211156200034e576200034d6200046b565b5b62000359826200049a565b9050602081019050919050565b600062000373826200037a565b9050919050565b600073ffffffffffffffffffffffffffffffffffffffff82169050919050565b60005b83811015620003ba5780820151818401526020810190506200039d565b83811115620003ca576000848401525b50505050565b60006002820490506001821680620003e957607f821691505b602082108114156200040057620003ff6200043c565b5b50919050565b62000411826200049a565b810181811067ffffffffffffffff821117156200043357620004326200046b565b5b80604052505050565b7f4e487b7100000000000000000000000000000000000000000000000000000000600052602260045260246000fd5b7f4e487b7100000000000000000000000000000000000000000000000000000000600052604160045260246000fd5b6000601f19601f8301169050919050565b620004b68162000366565b8114620004c257600080fd5b50565b61355780620004d56000396000f3fe60806040526004361061014b5760003560e01c8063860d248a116100b6578063c87b56dd1161006f578063c87b56dd14610483578063d5abeb01146104c0578063e985e9c5146104eb578063f2fde38b14610528578063f3fe3bc314610551578063fe6517341461057c5761014b565b8063860d248a146103a65780638da5cb5b146103d157806395d89b41146103fc578063a22cb46514610427578063bcf0dd8e14610450578063bff29cee146104795761014b565b806323b872dd1161010857806323b872dd1461028657806340d097c3146102af57806342842e0e146102d85780636352211e146103015780636c0360eb1461033e57806370a08231146103695761014b565b806301ffc9a71461015057806306fdde031461018d578063081812fc146101b8578063095ea7b3146101f557806318160ddd1461021e578063219a582314610249575b600080fd5b34801561015c57600080fd5b5061017760048036038101906101729190612555565b6105a5565b6040516101849190612a95565b60405180910390f35b34801561019957600080fd5b506101a2610687565b6040516101af9190612ab0565b60405180910390f35b3480156101c457600080fd5b506101df60048036038101906101da91906125a7565b610719565b6040516101ec9190612a2e565b60405180910390f35b34801561020157600080fd5b5061021c60048036038101906102179190612519565b61079e565b005b34801561022a57600080fd5b506102336108b6565b6040516102409190612d14565b60405180910390f35b34801561025557600080fd5b50610270600480360381019061026b91906125a7565b6108bc565b60405161027d9190612cf2565b60405180910390f35b34801561029257600080fd5b506102ad60048036038101906102a8919061248e565b610a1c565b005b3480156102bb57600080fd5b506102d660048036038101906102d19190612429565b610a7c565b005b3480156102e457600080fd5b506102ff60048036038101906102fa919061248e565b610bb2565b005b34801561030d57600080fd5b50610328600480360381019061032391906125a7565b610c22565b6040516103359190612a2e565b60405180910390f35b34801561034a57600080fd5b50610353610cd4565b6040516103609190612ab0565b60405180910390f35b34801561037557600080fd5b50610390600480360381019061038b9190612429565b610d66565b60405161039d9190612d14565b60405180910390f35b3480156103b257600080fd5b506103bb610e1e565b6040516103c89190612ab0565b60405180910390f35b3480156103dd57600080fd5b506103e6610e57565b6040516103f39190612a2e565b60405180910390f35b34801561040857600080fd5b50610411610e7b565b60405161041e9190612ab0565b60405180910390f35b34801561043357600080fd5b5061044e600480360381019061044991906124dd565b610f0d565b005b34801561045c57600080fd5b506104776004803603810190610472919061248e565b610f23565b005b610481610fbf565b005b34801561048f57600080fd5b506104aa60048036038101906104a591906125a7565b61107e565b6040516104b79190612ab0565b60405180910390f35b3480156104cc57600080fd5b506104d5611126565b6040516104e29190612d14565b60405180910390f35b3480156104f757600080fd5b50610512600480360381019061050d9190612452565b61112c565b60405161051f9190612a95565b60405180910390f35b34801561053457600080fd5b5061054f600480360381019061054a9190612429565b6111c0565b005b34801561055d57600080fd5b506105666113ed565b6040516105739190612ab0565b60405180910390f35b34801561058857600080fd5b506105a3600480360381019061059e9190612429565b611426565b005b60007f38211713000000000000000000000000000000000000000000000000000000007bffffffffffffffffffffffffffffffffffffffffffffffffffffffff1916827bffffffffffffffffffffffffffffffffffffffffffffffffffffffff1916148061067057507f5b5e139f000000000000000000000000000000000000000000000000000000007bffffffffffffffffffffffffffffffffffffffffffffffffffffffff1916827bffffffffffffffffffffffffffffffffffffffffffffffffffffffff1916145b80610680575061067f82611548565b5b9050919050565b60606001805461069690612efa565b80601f01602080910402602001604051908101604052809291908181526020018280546106c290612efa565b801561070f5780601f106106e45761010080835404028352916020019161070f565b820191906000526020600020905b8154815290600101906020018083116106f257829003601f168201915b5050505050905090565b6000610724826115b2565b610763576040517f08c379a000000000000000000000000000000000000000000000000000000000815260040161075a90612c32565b60405180910390fd5b6009600083815260200190815260200160002060009054906101000a900473ffffffffffffffffffffffffffffffffffffffff169050919050565b60006107a982610c22565b90508073ffffffffffffffffffffffffffffffffffffffff168373ffffffffffffffffffffffffffffffffffffffff16141561081a576040517f08c379a000000000000000000000000000000000000000000000000000000000815260040161081190612c72565b60405180910390fd5b8073ffffffffffffffffffffffffffffffffffffffff1661083961161e565b73ffffffffffffffffffffffffffffffffffffffff16148061086857506108678161086261161e565b61112c565b5b6108a7576040517f08c379a000000000000000000000000000000000000000000000000000000000815260040161089e90612b92565b60405180910390fd5b6108b18383611626565b505050565b60045481565b6108c46122d0565b6108cd826115b2565b61090c576040517f08c379a000000000000000000000000000000000000000000000000000000000815260040161090390612c52565b60405180910390fd5b600060405180606001604052806007600086815260200190815260200160002060009054906101000a900473ffffffffffffffffffffffffffffffffffffffff1673ffffffffffffffffffffffffffffffffffffffff1681526020016009600086815260200190815260200160002060009054906101000a900473ffffffffffffffffffffffffffffffffffffffff1673ffffffffffffffffffffffffffffffffffffffff1681526020016000600380546109c690612efa565b9050116109e25760405180602001604052806000815250610a0e565b60036109ed866116df565b6040516020016109fe929190612a0a565b6040516020818303038152906040525b815250905080915050919050565b610a2d610a2761161e565b8261188c565b610a6c576040517f08c379a0000000000000000000000000000000000000000000000000000000008152600401610a6390612c92565b60405180910390fd5b610a7783838361196a565b505050565b60008054906101000a900473ffffffffffffffffffffffffffffffffffffffff1673ffffffffffffffffffffffffffffffffffffffff163373ffffffffffffffffffffffffffffffffffffffff16146040518060400160405280600681526020017f303138303031000000000000000000000000000000000000000000000000000081525090610b42576040517f08c379a0000000000000000000000000000000000000000000000000000000008152600401610b399190612ab0565b60405180910390fd5b506005546001600454610b559190612d98565b1115610b96576040517f08c379a0000000000000000000000000000000000000000000000000000000008152600401610b8d90612ad2565b60405180910390fd5b610baf8160405180602001604052806000815250611bbb565b50565b610bc3610bbd61161e565b8261188c565b610c02576040517f08c379a0000000000000000000000000000000000000000000000000000000008152600401610bf990612c92565b60405180910390fd5b610c1d83838360405180602001604052806000815250611c28565b505050565b6000806007600084815260200190815260200160002060009054906101000a900473ffffffffffffffffffffffffffffffffffffffff169050600073ffffffffffffffffffffffffffffffffffffffff168173ffffffffffffffffffffffffffffffffffffffff161415610ccb576040517f08c379a0000000000000000000000000000000000000000000000000000000008152600401610cc290612bd2565b60405180910390fd5b80915050919050565b606060038054610ce390612efa565b80601f0160208091040260200160405190810160405280929190818152602001828054610d0f90612efa565b8015610d5c5780601f10610d3157610100808354040283529160200191610d5c565b820191906000526020600020905b815481529060010190602001808311610d3f57829003601f168201915b5050505050905090565b60008073ffffffffffffffffffffffffffffffffffffffff168273ffffffffffffffffffffffffffffffffffffffff161415610dd7576040517f08c379a0000000000000000000000000000000000000000000000000000000008152600401610dce90612bb2565b60405180910390fd5b600860008373ffffffffffffffffffffffffffffffffffffffff1673ffffffffffffffffffffffffffffffffffffffff168152602001908152602001600020549050919050565b6040518060400160405280600681526020017f303138303032000000000000000000000000000000000000000000000000000081525081565b60008054906101000a900473ffffffffffffffffffffffffffffffffffffffff1681565b606060028054610e8a90612efa565b80601f0160208091040260200160405190810160405280929190818152602001828054610eb690612efa565b8015610f035780601f10610ed857610100808354040283529160200191610f03565b820191906000526020600020905b815481529060010190602001808311610ee657829003601f168201915b5050505050905090565b610f1f610f1861161e565b8383611c84565b5050565b600c60003373ffffffffffffffffffffffffffffffffffffffff1673ffffffffffffffffffffffffffffffffffffffff16815260200190815260200160002060009054906101000a900460ff16610faf576040517f08c379a0000000000000000000000000000000000000000000000000000000008152600401610fa690612cb2565b60405180910390fd5b610fba83838361196a565b505050565b67016345785d8a00003414611009576040517f08c379a000000000000000000000000000000000000000000000000000000000815260040161100090612cd2565b60405180910390fd5b600554600160045461101b9190612d98565b111561105c576040517f08c379a000000000000000000000000000000000000000000000000000000000815260040161105390612ad2565b60405180910390fd5b61107c61106761161e565b60405180602001604052806000815250611bbb565b565b6060611089826115b2565b6110c8576040517f08c379a00000000000000000000000000000000000000000000000000000000081526004016110bf90612c52565b60405180910390fd5b6000600380546110d790612efa565b9050116110f3576040518060200160405280600081525061111f565b60036110fe836116df565b60405160200161110f929190612a0a565b6040516020818303038152906040525b9050919050565b60055481565b6000600a60008473ffffffffffffffffffffffffffffffffffffffff1673ffffffffffffffffffffffffffffffffffffffff16815260200190815260200160002060008373ffffffffffffffffffffffffffffffffffffffff1673ffffffffffffffffffffffffffffffffffffffff16815260200190815260200160002060009054906101000a900460ff16905092915050565b60008054906101000a900473ffffffffffffffffffffffffffffffffffffffff1673ffffffffffffffffffffffffffffffffffffffff163373ffffffffffffffffffffffffffffffffffffffff16146040518060400160405280600681526020017f303138303031000000000000000000000000000000000000000000000000000081525090611286576040517f08c379a000000000000000000000000000000000000000000000000000000000815260040161127d9190612ab0565b60405180910390fd5b50600073ffffffffffffffffffffffffffffffffffffffff168173ffffffffffffffffffffffffffffffffffffffff1614156040518060400160405280600681526020017f30313830303200000000000000000000000000000000000000000000000000008152509061132f576040517f08c379a00000000000000000000000000000000000000000000000000000000081526004016113269190612ab0565b60405180910390fd5b508073ffffffffffffffffffffffffffffffffffffffff1660008054906101000a900473ffffffffffffffffffffffffffffffffffffffff1673ffffffffffffffffffffffffffffffffffffffff167f8be0079c531659141344cd1fd0a4f28419497f9722a3daafe3b4186f6b6457e060405160405180910390a3806000806101000a81548173ffffffffffffffffffffffffffffffffffffffff021916908373ffffffffffffffffffffffffffffffffffffffff16021790555050565b6040518060400160405280600681526020017f303138303031000000000000000000000000000000000000000000000000000081525081565b60008054906101000a900473ffffffffffffffffffffffffffffffffffffffff1673ffffffffffffffffffffffffffffffffffffffff163373ffffffffffffffffffffffffffffffffffffffff16146040518060400160405280600681526020017f3031383030310000000000000000000000000000000000000000000000000000815250906114ec576040517f08c379a00000000000000000000000000000000000000000000000000000000081526004016114e39190612ab0565b60405180910390fd5b506001600c60008373ffffffffffffffffffffffffffffffffffffffff1673ffffffffffffffffffffffffffffffffffffffff16815260200190815260200160002060006101000a81548160ff02191690831515021790555050565b60007f01ffc9a7000000000000000000000000000000000000000000000000000000007bffffffffffffffffffffffffffffffffffffffffffffffffffffffff1916827bffffffffffffffffffffffffffffffffffffffffffffffffffffffff1916149050919050565b60008073ffffffffffffffffffffffffffffffffffffffff166007600084815260200190815260200160002060009054906101000a900473ffffffffffffffffffffffffffffffffffffffff1673ffffffffffffffffffffffffffffffffffffffff1614159050919050565b600033905090565b816009600083815260200190815260200160002060006101000a81548173ffffffffffffffffffffffffffffffffffffffff021916908373ffffffffffffffffffffffffffffffffffffffff160217905550808273ffffffffffffffffffffffffffffffffffffffff1661169983610c22565b73ffffffffffffffffffffffffffffffffffffffff167f8c5be1e5ebec7d5bd14f71427d1e84f3dd0314c0f7b2291e5b200ac8c7c3b92560405160405180910390a45050565b60606000821415611727576040518060400160405280600181526020017f30000000000000000000000000000000000000000000000000000000000000008152509050611887565b600082905060005b6000821461175957808061174290612f2c565b915050600a826117529190612dee565b915061172f565b60008167ffffffffffffffff81111561179b577f4e487b7100000000000000000000000000000000000000000000000000000000600052604160045260246000fd5b6040519080825280601f01601f1916602001820160405280156117cd5781602001600182028036833780820191505090505b5090505b60008514611880576001826117e69190612e1f565b9150600a856117f59190612f75565b60306118019190612d98565b60f81b81838151811061183d577f4e487b7100000000000000000000000000000000000000000000000000000000600052603260045260246000fd5b60200101907effffffffffffffffffffffffffffffffffffffffffffffffffffffffffffff1916908160001a905350600a856118799190612dee565b94506117d1565b8093505050505b919050565b6000611897826115b2565b6118d6576040517f08c379a00000000000000000000000000000000000000000000000000000000081526004016118cd90612b72565b60405180910390fd5b60006118e183610c22565b90508073ffffffffffffffffffffffffffffffffffffffff168473ffffffffffffffffffffffffffffffffffffffff16148061195057508373ffffffffffffffffffffffffffffffffffffffff1661193884610719565b73ffffffffffffffffffffffffffffffffffffffff16145b806119615750611960818561112c565b5b91505092915050565b8273ffffffffffffffffffffffffffffffffffffffff1661198a82610c22565b73ffffffffffffffffffffffffffffffffffffffff16146119e0576040517f08c379a00000000000000000000000000000000000000000000000000000000081526004016119d790612b12565b60405180910390fd5b600073ffffffffffffffffffffffffffffffffffffffff168273ffffffffffffffffffffffffffffffffffffffff161415611a50576040517f08c379a0000000000000000000000000000000000000000000000000000000008152600401611a4790612b32565b60405180910390fd5b611a5b600082611626565b6001600860008573ffffffffffffffffffffffffffffffffffffffff1673ffffffffffffffffffffffffffffffffffffffff1681526020019081526020016000206000828254611aab9190612e1f565b925050819055506001600860008473ffffffffffffffffffffffffffffffffffffffff1673ffffffffffffffffffffffffffffffffffffffff1681526020019081526020016000206000828254611b029190612d98565b92505081905550816007600083815260200190815260200160002060006101000a81548173ffffffffffffffffffffffffffffffffffffffff021916908373ffffffffffffffffffffffffffffffffffffffff160217905550808273ffffffffffffffffffffffffffffffffffffffff168473ffffffffffffffffffffffffffffffffffffffff167fddf252ad1be2c89b69c2b068fc378daa952ba7f163c4a11628f55a4df523b3ef60405160405180910390a4505050565b60006001600454611bcc9190612d98565b9050611bdb6000848385611df1565b611c1a576040517f08c379a0000000000000000000000000000000000000000000000000000000008152600401611c1190612af2565b60405180910390fd5b611c2383611f88565b505050565b611c3384848461196a565b611c3f84848484611df1565b611c7e576040517f08c379a0000000000000000000000000000000000000000000000000000000008152600401611c7590612af2565b60405180910390fd5b50505050565b8173ffffffffffffffffffffffffffffffffffffffff168373ffffffffffffffffffffffffffffffffffffffff161415611cf3576040517f08c379a0000000000000000000000000000000000000000000000000000000008152600401611cea90612b52565b60405180910390fd5b80600a60008573ffffffffffffffffffffffffffffffffffffffff1673ffffffffffffffffffffffffffffffffffffffff16815260200190815260200160002060008473ffffffffffffffffffffffffffffffffffffffff1673ffffffffffffffffffffffffffffffffffffffff16815260200190815260200160002060006101000a81548160ff0219169083151502179055508173ffffffffffffffffffffffffffffffffffffffff168373ffffffffffffffffffffffffffffffffffffffff167f17307eab39ab6107e8899845ad3d59bd9653f200f220920489ca2b5937696c3183604051611de49190612a95565b60405180910390a3505050565b6000611e128473ffffffffffffffffffffffffffffffffffffffff166121c8565b15611f7b578373ffffffffffffffffffffffffffffffffffffffff1663150b7a02611e3b61161e565b8786866040518563ffffffff1660e01b8152600401611e5d9493929190612a49565b602060405180830381600087803b158015611e7757600080fd5b505af1925050508015611ea857506040513d601f19601f82011682018060405250810190611ea5919061257e565b60015b611f2b573d8060008114611ed8576040519150601f19603f3d011682016040523d82523d6000602084013e611edd565b606091505b50600081511415611f23576040517f08c379a0000000000000000000000000000000000000000000000000000000008152600401611f1a90612af2565b60405180910390fd5b805181602001fd5b63150b7a0260e01b7bffffffffffffffffffffffffffffffffffffffffffffffffffffffff1916817bffffffffffffffffffffffffffffffffffffffffffffffffffffffff191614915050611f80565b600190505b949350505050565b600073ffffffffffffffffffffffffffffffffffffffff168173ffffffffffffffffffffffffffffffffffffffff161415611ff8576040517f08c379a0000000000000000000000000000000000000000000000000000000008152600401611fef90612c12565b60405180910390fd5b600060016004546120099190612d98565b90506004600081548092919061201e90612f2c565b91905055506001600860008473ffffffffffffffffffffffffffffffffffffffff1673ffffffffffffffffffffffffffffffffffffffff16815260200190815260200160002060008282546120739190612d98565b92505081905550816007600083815260200190815260200160002060006101000a81548173ffffffffffffffffffffffffffffffffffffffff021916908373ffffffffffffffffffffffffffffffffffffffff16021790555061216081600380546120dd90612efa565b80601f016020809104026020016040519081016040528092919081815260200182805461210990612efa565b80156121565780601f1061212b57610100808354040283529160200191612156565b820191906000526020600020905b81548152906001019060200180831161213957829003601f168201915b50505050506121eb565b61216861225f565b808273ffffffffffffffffffffffffffffffffffffffff16600073ffffffffffffffffffffffffffffffffffffffff167fddf252ad1be2c89b69c2b068fc378daa952ba7f163c4a11628f55a4df523b3ef60405160405180910390a45050565b6000808273ffffffffffffffffffffffffffffffffffffffff163b119050919050565b6121f4826115b2565b612233576040517f08c379a000000000000000000000000000000000000000000000000000000000815260040161222a90612bf2565b60405180910390fd5b80600b6000848152602001908152602001600020908051906020019061225a92919061231d565b505050565b6000600660009054906101000a900473ffffffffffffffffffffffffffffffffffffffff1690508073ffffffffffffffffffffffffffffffffffffffff166108fc349081150290604051600060405180830381858888f193505050501580156122cc573d6000803e3d6000fd5b5050565b6040518060600160405280600073ffffffffffffffffffffffffffffffffffffffff168152602001600073ffffffffffffffffffffffffffffffffffffffff168152602001606081525090565b82805461232990612efa565b90600052602060002090601f01602090048101928261234b5760008555612392565b82601f1061236457805160ff1916838001178555612392565b82800160010185558215612392579182015b82811115612391578251825591602001919060010190612376565b5b50905061239f91906123a3565b5090565b5b808211156123bc5760008160009055506001016123a4565b5090565b6000813590506123cf816134c5565b92915050565b6000813590506123e4816134dc565b92915050565b6000813590506123f9816134f3565b92915050565b60008151905061240e816134f3565b92915050565b6000813590506124238161350a565b92915050565b60006020828403121561243b57600080fd5b6000612449848285016123c0565b91505092915050565b6000806040838503121561246557600080fd5b6000612473858286016123c0565b9250506020612484858286016123c0565b9150509250929050565b6000806000606084860312156124a357600080fd5b60006124b1868287016123c0565b93505060206124c2868287016123c0565b92505060406124d386828701612414565b9150509250925092565b600080604083850312156124f057600080fd5b60006124fe858286016123c0565b925050602061250f858286016123d5565b9150509250929050565b6000806040838503121561252c57600080fd5b600061253a858286016123c0565b925050602061254b85828601612414565b9150509250929050565b60006020828403121561256757600080fd5b6000612575848285016123ea565b91505092915050565b60006020828403121561259057600080fd5b600061259e848285016123ff565b91505092915050565b6000602082840312156125b957600080fd5b60006125c784828501612414565b91505092915050565b6125d981612e53565b82525050565b6125e881612e53565b82525050565b6125f781612e65565b82525050565b600061260882612d44565b6126128185612d5a565b9350612622818560208601612ec7565b61262b81613033565b840191505092915050565b600061264182612d4f565b61264b8185612d6b565b935061265b818560208601612ec7565b61266481613033565b840191505092915050565b600061267a82612d4f565b6126848185612d7c565b9350612694818560208601612ec7565b61269d81613033565b840191505092915050565b60006126b382612d4f565b6126bd8185612d8d565b93506126cd818560208601612ec7565b80840191505092915050565b600081546126e681612efa565b6126f08186612d8d565b9450600182166000811461270b576001811461271c5761274f565b60ff1983168652818601935061274f565b61272585612d2f565b60005b8381101561274757815481890152600182019150602081019050612728565b838801955050505b50505092915050565b6000612765600f83612d7c565b915061277082613044565b602082019050919050565b6000612788603283612d7c565b91506127938261306d565b604082019050919050565b60006127ab602583612d7c565b91506127b6826130bc565b604082019050919050565b60006127ce602483612d7c565b91506127d98261310b565b604082019050919050565b60006127f1601983612d7c565b91506127fc8261315a565b602082019050919050565b6000612814602c83612d7c565b915061281f82613183565b604082019050919050565b6000612837603883612d7c565b9150612842826131d2565b604082019050919050565b600061285a602a83612d7c565b915061286582613221565b604082019050919050565b600061287d602983612d7c565b915061288882613270565b604082019050919050565b60006128a0602e83612d7c565b91506128ab826132bf565b604082019050919050565b60006128c3602083612d7c565b91506128ce8261330e565b602082019050919050565b60006128e6602c83612d7c565b91506128f182613337565b604082019050919050565b6000612909602f83612d7c565b915061291482613386565b604082019050919050565b600061292c602183612d7c565b9150612937826133d5565b604082019050919050565b600061294f603183612d7c565b915061295a82613424565b604082019050919050565b6000612972600c83612d7c565b915061297d82613473565b602082019050919050565b6000612995600e83612d7c565b91506129a08261349c565b602082019050919050565b60006060830160008301516129c360008601826125d0565b5060208301516129d660208601826125d0565b50604083015184820360408601526129ee8282612636565b9150508091505092915050565b612a0481612ebd565b82525050565b6000612a1682856126d9565b9150612a2282846126a8565b91508190509392505050565b6000602082019050612a4360008301846125df565b92915050565b6000608082019050612a5e60008301876125df565b612a6b60208301866125df565b612a7860408301856129fb565b8181036060830152612a8a81846125fd565b905095945050505050565b6000602082019050612aaa60008301846125ee565b92915050565b60006020820190508181036000830152612aca818461266f565b905092915050565b60006020820190508181036000830152612aeb81612758565b9050919050565b60006020820190508181036000830152612b0b8161277b565b9050919050565b60006020820190508181036000830152612b2b8161279e565b9050919050565b60006020820190508181036000830152612b4b816127c1565b9050919050565b60006020820190508181036000830152612b6b816127e4565b9050919050565b60006020820190508181036000830152612b8b81612807565b9050919050565b60006020820190508181036000830152612bab8161282a565b9050919050565b60006020820190508181036000830152612bcb8161284d565b9050919050565b60006020820190508181036000830152612beb81612870565b9050919050565b60006020820190508181036000830152612c0b81612893565b9050919050565b60006020820190508181036000830152612c2b816128b6565b9050919050565b60006020820190508181036000830152612c4b816128d9565b9050919050565b60006020820190508181036000830152612c6b816128fc565b9050919050565b60006020820190508181036000830152612c8b8161291f565b9050919050565b60006020820190508181036000830152612cab81612942565b9050919050565b60006020820190508181036000830152612ccb81612965565b9050919050565b60006020820190508181036000830152612ceb81612988565b9050919050565b60006020820190508181036000830152612d0c81846129ab565b905092915050565b6000602082019050612d2960008301846129fb565b92915050565b60008190508160005260206000209050919050565b600081519050919050565b600081519050919050565b600082825260208201905092915050565b600082825260208201905092915050565b600082825260208201905092915050565b600081905092915050565b6000612da382612ebd565b9150612dae83612ebd565b9250827fffffffffffffffffffffffffffffffffffffffffffffffffffffffffffffffff03821115612de357612de2612fa6565b5b828201905092915050565b6000612df982612ebd565b9150612e0483612ebd565b925082612e1457612e13612fd5565b5b828204905092915050565b6000612e2a82612ebd565b9150612e3583612ebd565b925082821015612e4857612e47612fa6565b5b828203905092915050565b6000612e5e82612e9d565b9050919050565b60008115159050919050565b60007fffffffff0000000000000000000000000000000000000000000000000000000082169050919050565b600073ffffffffffffffffffffffffffffffffffffffff82169050919050565b6000819050919050565b60005b83811015612ee5578082015181840152602081019050612eca565b83811115612ef4576000848401525b50505050565b60006002820490506001821680612f1257607f821691505b60208210811415612f2657612f25613004565b5b50919050565b6000612f3782612ebd565b91507fffffffffffffffffffffffffffffffffffffffffffffffffffffffffffffffff821415612f6a57612f69612fa6565b5b600182019050919050565b6000612f8082612ebd565b9150612f8b83612ebd565b925082612f9b57612f9a612fd5565b5b828206905092915050565b7f4e487b7100000000000000000000000000000000000000000000000000000000600052601160045260246000fd5b7f4e487b7100000000000000000000000000000000000000000000000000000000600052601260045260246000fd5b7f4e487b7100000000000000000000000000000000000000000000000000000000600052602260045260246000fd5b6000601f19601f8301169050919050565b7f4e6f206d6f726520746f206d696e740000000000000000000000000000000000600082015250565b7f4552433732313a207472616e7366657220746f206e6f6e20455243373231526560008201527f63656976657220696d706c656d656e7465720000000000000000000000000000602082015250565b7f4552433732313a207472616e736665722066726f6d20696e636f72726563742060008201527f6f776e6572000000000000000000000000000000000000000000000000000000602082015250565b7f4552433732313a207472616e7366657220746f20746865207a65726f2061646460008201527f7265737300000000000000000000000000000000000000000000000000000000602082015250565b7f4552433732313a20617070726f766520746f2063616c6c657200000000000000600082015250565b7f4552433732313a206f70657261746f7220717565727920666f72206e6f6e657860008201527f697374656e7420746f6b656e0000000000000000000000000000000000000000602082015250565b7f4552433732313a20617070726f76652063616c6c6572206973206e6f74206f7760008201527f6e6572206e6f7220617070726f76656420666f7220616c6c0000000000000000602082015250565b7f4552433732313a2062616c616e636520717565727920666f7220746865207a6560008201527f726f206164647265737300000000000000000000000000000000000000000000602082015250565b7f4552433732313a206f776e657220717565727920666f72206e6f6e657869737460008201527f656e7420746f6b656e0000000000000000000000000000000000000000000000602082015250565b7f45524337323155524953746f726167653a2055524920736574206f66206e6f6e60008201527f6578697374656e7420746f6b656e000000000000000000000000000000000000602082015250565b7f4552433732313a206d696e7420746f20746865207a65726f2061646472657373600082015250565b7f4552433732313a20617070726f76656420717565727920666f72206e6f6e657860008201527f697374656e7420746f6b656e0000000000000000000000000000000000000000602082015250565b7f4552433732314d657461646174613a2055524920717565727920666f72206e6f60008201527f6e6578697374656e7420746f6b656e0000000000000000000000000000000000602082015250565b7f4552433732313a20617070726f76616c20746f2063757272656e74206f776e6560008201527f7200000000000000000000000000000000000000000000000000000000000000602082015250565b7f4552433732313a207472616e736665722063616c6c6572206973206e6f74206f60008201527f776e6572206e6f7220617070726f766564000000000000000000000000000000602082015250565b7f6e6f7420617070726f7665640000000000000000000000000000000000000000600082015250565b7f4e65656420302e31206574686572000000000000000000000000000000000000600082015250565b6134ce81612e53565b81146134d957600080fd5b50565b6134e581612e65565b81146134f057600080fd5b50565b6134fc81612e71565b811461350757600080fd5b50565b61351381612ebd565b811461351e57600080fd5b5056fea264697066735822122041eab5069b5a2a5d264873518cd20fa85da28f1523c4c4f6f4ea1b5e3f2369c064736f6c63430008040033",
  "linkReferences": {},
  "deployedLinkReferences": {}
}