{
  "_format": "hh-sol-artifact-1",
  "contractName": "ERC721",
  "sourceName": "contracts/nft/ERC721.sol",
  "abi": [
    {
      "inputs": [
        {
          "internalType": "string",
          "name": "name_",
          "type": "string"
        },
        {
          "internalType": "string",
          "name": "symbol_",
          "type": "string"
        },
        {
          "internalType": "string",
          "name": "baseURI_",
          "type": "string"
        },
        {
          "internalType": "address",
          "name": "wallet_",
          "type": "address"
        }
      ],
      "stateMutability": "nonpayable",
      "type": "constructor"
    },
    {
      "anonymous": false,
      "inputs": [
        {
          "indexed": true,
          "internalType": "address",
          "name": "owner",
          "type": "address"
        },
        {
          "indexed": true,
          "internalType": "address",
          "name": "approved",
          "type": "address"
        },
        {
          "indexed": true,
          "internalType": "uint256",
          "name": "tokenId",
          "type": "uint256"
        }
      ],
      "name": "Approval",
      "type": "event"
    },
    {
      "anonymous": false,
      "inputs": [
        {
          "indexed": true,
          "internalType": "address",
          "name": "owner",
          "type": "address"
        },
        {
          "indexed": true,
          "internalType": "address",
          "name": "operator",
          "type": "address"
        },
        {
          "indexed": false,
          "internalType": "bool",
          "name": "approved",
          "type": "bool"
        }
      ],
      "name": "ApprovalForAll",
      "type": "event"
    },
    {
      "anonymous": false,
      "inputs": [
        {
          "indexed": true,
          "internalType": "address",
          "name": "previousOwner",
          "type": "address"
        },
        {
          "indexed": true,
          "internalType": "address",
          "name": "newOwner",
          "type": "address"
        }
      ],
      "name": "OwnershipTransferred",
      "type": "event"
    },
    {
      "anonymous": false,
      "inputs": [
        {
          "indexed": true,
          "internalType": "address",
          "name": "from",
          "type": "address"
        },
        {
          "indexed": true,
          "internalType": "address",
          "name": "to",
          "type": "address"
        },
        {
          "indexed": true,
          "internalType": "uint256",
          "name": "tokenId",
          "type": "uint256"
        }
      ],
      "name": "Transfer",
      "type": "event"
    },
    {
      "inputs": [],
      "name": "CANNOT_TRANSFER_TO_ZERO_ADDRESS",
      "outputs": [
        {
          "internalType": "string",
          "name": "",
          "type": "string"
        }
      ],
      "stateMutability": "view",
      "type": "function"
    },
    {
      "inputs": [],
      "name": "NOT_CURRENT_OWNER",
      "outputs": [
        {
          "internalType": "string",
          "name": "",
          "type": "string"
        }
      ],
      "stateMutability": "view",
      "type": "function"
    },
    {
      "inputs": [
        {
          "internalType": "address",
          "name": "to",
          "type": "address"
        },
        {
          "internalType": "uint256",
          "name": "tokenId",
          "type": "uint256"
        }
      ],
      "name": "approve",
      "outputs": [],
      "stateMutability": "nonpayable",
      "type": "function"
    },
    {
      "inputs": [
        {
          "internalType": "address",
          "name": "owner",
          "type": "address"
        }
      ],
      "name": "balanceOf",
      "outputs": [
        {
          "internalType": "uint256",
          "name": "",
          "type": "uint256"
        }
      ],
      "stateMutability": "view",
      "type": "function"
    },
    {
      "inputs": [],
      "name": "baseURI",
      "outputs": [
        {
          "internalType": "string",
          "name": "",
          "type": "string"
        }
      ],
      "stateMutability": "view",
      "type": "function"
    },
    {
      "inputs": [],
      "name": "buyNFT",
      "outputs": [],
      "stateMutability": "payable",
      "type": "function"
    },
    {
      "inputs": [
        {
          "internalType": "uint256",
          "name": "tokenId",
          "type": "uint256"
        }
      ],
      "name": "getApproved",
      "outputs": [
        {
          "internalType": "address",
          "name": "",
          "type": "address"
        }
      ],
      "stateMutability": "view",
      "type": "function"
    },
    {
      "inputs": [
        {
          "internalType": "uint256",
          "name": "_tokenId",
          "type": "uint256"
        }
      ],
      "name": "getInfoToken",
      "outputs": [
        {
          "components": [
            {
              "internalType": "address",
              "name": "owner",
              "type": "address"
            },
            {
              "internalType": "address",
              "name": "approval",
              "type": "address"
            },
            {
              "internalType": "string",
              "name": "URI",
              "type": "string"
            }
          ],
          "internalType": "struct ERC721.Info",
          "name": "",
          "type": "tuple"
        }
      ],
      "stateMutability": "view",
      "type": "function"
    },
    {
      "inputs": [
        {
          "internalType": "address",
          "name": "owner",
          "type": "address"
        },
        {
          "internalType": "address",
          "name": "operator",
          "type": "address"
        }
      ],
      "name": "isApprovedForAll",
      "outputs": [
        {
          "internalType": "bool",
          "name": "",
          "type": "bool"
        }
      ],
      "stateMutability": "view",
      "type": "function"
    },
    {
      "inputs": [],
      "name": "maxSupply",
      "outputs": [
        {
          "internalType": "uint256",
          "name": "",
          "type": "uint256"
        }
      ],
      "stateMutability": "view",
      "type": "function"
    },
    {
      "inputs": [],
      "name": "name",
      "outputs": [
        {
          "internalType": "string",
          "name": "",
          "type": "string"
        }
      ],
      "stateMutability": "view",
      "type": "function"
    },
    {
      "inputs": [],
      "name": "owner",
      "outputs": [
        {
          "internalType": "address",
          "name": "",
          "type": "address"
        }
      ],
      "stateMutability": "view",
      "type": "function"
    },
    {
      "inputs": [
        {
          "internalType": "uint256",
          "name": "tokenId",
          "type": "uint256"
        }
      ],
      "name": "ownerOf",
      "outputs": [
        {
          "internalType": "address",
          "name": "",
          "type": "address"
        }
      ],
      "stateMutability": "view",
      "type": "function"
    },
    {
      "inputs": [
        {
          "internalType": "address",
          "name": "to",
          "type": "address"
        }
      ],
      "name": "safeMint",
      "outputs": [],
      "stateMutability": "nonpayable",
      "type": "function"
    },
    {
      "inputs": [
        {
          "internalType": "address",
          "name": "from",
          "type": "address"
        },
        {
          "internalType": "address",
          "name": "to",
          "type": "address"
        },
        {
          "internalType": "uint256",
          "name": "tokenId",
          "type": "uint256"
        }
      ],
      "name": "safeTransferFrom",
      "outputs": [],
      "stateMutability": "nonpayable",
      "type": "function"
    },
    {
      "inputs": [
        {
          "internalType": "address",
          "name": "operator",
          "type": "address"
        },
        {
          "internalType": "bool",
          "name": "approved",
          "type": "bool"
        }
      ],
      "name": "setApprovalForAll",
      "outputs": [],
      "stateMutability": "nonpayable",
      "type": "function"
    },
    {
      "inputs": [
        {
          "internalType": "bytes4",
          "name": "interfaceId",
          "type": "bytes4"
        }
      ],
      "name": "supportsInterface",
      "outputs": [
        {
          "internalType": "bool",
          "name": "",
          "type": "bool"
        }
      ],
      "stateMutability": "view",
      "type": "function"
    },
    {
      "inputs": [],
      "name": "symbol",
      "outputs": [
        {
          "internalType": "string",
          "name": "",
          "type": "string"
        }
      ],
      "stateMutability": "view",
      "type": "function"
    },
    {
      "inputs": [
        {
          "internalType": "uint256",
          "name": "tokenId",
          "type": "uint256"
        }
      ],
      "name": "tokenURI",
      "outputs": [
        {
          "internalType": "string",
          "name": "",
          "type": "string"
        }
      ],
      "stateMutability": "view",
      "type": "function"
    },
    {
      "inputs": [],
      "name": "totalSupply",
      "outputs": [
        {
          "internalType": "uint256",
          "name": "",
          "type": "uint256"
        }
      ],
      "stateMutability": "view",
      "type": "function"
    },
    {
      "inputs": [
        {
          "internalType": "address",
          "name": "from",
          "type": "address"
        },
        {
          "internalType": "address",
          "name": "to",
          "type": "address"
        },
        {
          "internalType": "uint256",
          "name": "tokenId",
          "type": "uint256"
        }
      ],
      "name": "transferFrom",
      "outputs": [],
      "stateMutability": "nonpayable",
      "type": "function"
    },
    {
      "inputs": [
        {
          "internalType": "address",
          "name": "_newOwner",
          "type": "address"
        }
      ],
      "name": "transferOwnership",
      "outputs": [],
      "stateMutability": "nonpayable",
      "type": "function"
    }
  ],
  "bytecode": "0x6080604052600060045560646005553480156200001b57600080fd5b506040516200379a3803806200379a833981810160405281019062000041919062000250565b336000806101000a81548173ffffffffffffffffffffffffffffffffffffffff021916908373ffffffffffffffffffffffffffffffffffffffff16021790555083600190805190602001906200009992919062000117565b508260029080519060200190620000b292919062000117565b508160039080519060200190620000cb92919062000117565b5080600660006101000a81548173ffffffffffffffffffffffffffffffffffffffff021916908373ffffffffffffffffffffffffffffffffffffffff16021790555050505050620004c5565b8280546200012590620003d0565b90600052602060002090601f01602090048101928262000149576000855562000195565b82601f106200016457805160ff191683800117855562000195565b8280016001018555821562000195579182015b828111156200019457825182559160200191906001019062000177565b5b509050620001a49190620001a8565b5090565b5b80821115620001c3576000816000905550600101620001a9565b5090565b6000620001de620001d88462000330565b62000307565b905082815260208101848484011115620001f757600080fd5b620002048482856200039a565b509392505050565b6000815190506200021d81620004ab565b92915050565b600082601f8301126200023557600080fd5b815162000247848260208601620001c7565b91505092915050565b600080600080608085870312156200026757600080fd5b600085015167ffffffffffffffff8111156200028257600080fd5b620002908782880162000223565b945050602085015167ffffffffffffffff811115620002ae57600080fd5b620002bc8782880162000223565b935050604085015167ffffffffffffffff811115620002da57600080fd5b620002e88782880162000223565b9250506060620002fb878288016200020c565b91505092959194509250565b60006200031362000326565b905062000321828262000406565b919050565b6000604051905090565b600067ffffffffffffffff8211156200034e576200034d6200046b565b5b62000359826200049a565b9050602081019050919050565b600062000373826200037a565b9050919050565b600073ffffffffffffffffffffffffffffffffffffffff82169050919050565b60005b83811015620003ba5780820151818401526020810190506200039d565b83811115620003ca576000848401525b50505050565b60006002820490506001821680620003e957607f821691505b602082108114156200040057620003ff6200043c565b5b50919050565b62000411826200049a565b810181811067ffffffffffffffff821117156200043357620004326200046b565b5b80604052505050565b7f4e487b7100000000000000000000000000000000000000000000000000000000600052602260045260246000fd5b7f4e487b7100000000000000000000000000000000000000000000000000000000600052604160045260246000fd5b6000601f19601f8301169050919050565b620004b68162000366565b8114620004c257600080fd5b50565b6132c580620004d56000396000f3fe6080604052600436106101355760003560e01c806370a08231116100ab578063bff29cee1161006f578063bff29cee1461043a578063c87b56dd14610444578063d5abeb0114610481578063e985e9c5146104ac578063f2fde38b146104e9578063f3fe3bc31461051257610135565b806370a0823114610353578063860d248a146103905780638da5cb5b146103bb57806395d89b41146103e6578063a22cb4651461041157610135565b8063219a5823116100fd578063219a58231461023357806323b872dd1461027057806340d097c31461029957806342842e0e146102c25780636352211e146102eb5780636c0360eb1461032857610135565b806301ffc9a71461013a57806306fdde0314610177578063081812fc146101a2578063095ea7b3146101df57806318160ddd14610208575b600080fd5b34801561014657600080fd5b50610161600480360381019061015c919061232f565b61053d565b60405161016e919061284c565b60405180910390f35b34801561018357600080fd5b5061018c61061f565b6040516101999190612867565b60405180910390f35b3480156101ae57600080fd5b506101c960048036038101906101c49190612381565b6106b1565b6040516101d691906127e5565b60405180910390f35b3480156101eb57600080fd5b50610206600480360381019061020191906122f3565b610736565b005b34801561021457600080fd5b5061021d61084e565b60405161022a9190612aab565b60405180910390f35b34801561023f57600080fd5b5061025a60048036038101906102559190612381565b610854565b6040516102679190612a89565b60405180910390f35b34801561027c57600080fd5b5061029760048036038101906102929190612268565b6109b4565b005b3480156102a557600080fd5b506102c060048036038101906102bb9190612203565b610a14565b005b3480156102ce57600080fd5b506102e960048036038101906102e49190612268565b610b4a565b005b3480156102f757600080fd5b50610312600480360381019061030d9190612381565b610bba565b60405161031f91906127e5565b60405180910390f35b34801561033457600080fd5b5061033d610c6c565b60405161034a9190612867565b60405180910390f35b34801561035f57600080fd5b5061037a60048036038101906103759190612203565b610cfe565b6040516103879190612aab565b60405180910390f35b34801561039c57600080fd5b506103a5610db6565b6040516103b29190612867565b60405180910390f35b3480156103c757600080fd5b506103d0610def565b6040516103dd91906127e5565b60405180910390f35b3480156103f257600080fd5b506103fb610e13565b6040516104089190612867565b60405180910390f35b34801561041d57600080fd5b50610438600480360381019061043391906122b7565b610ea5565b005b610442610ebb565b005b34801561045057600080fd5b5061046b60048036038101906104669190612381565b610f7a565b6040516104789190612867565b60405180910390f35b34801561048d57600080fd5b50610496611022565b6040516104a39190612aab565b60405180910390f35b3480156104b857600080fd5b506104d360048036038101906104ce919061222c565b611028565b6040516104e0919061284c565b60405180910390f35b3480156104f557600080fd5b50610510600480360381019061050b9190612203565b6110bc565b005b34801561051e57600080fd5b506105276112e9565b6040516105349190612867565b60405180910390f35b60007f38211713000000000000000000000000000000000000000000000000000000007bffffffffffffffffffffffffffffffffffffffffffffffffffffffff1916827bffffffffffffffffffffffffffffffffffffffffffffffffffffffff1916148061060857507f5b5e139f000000000000000000000000000000000000000000000000000000007bffffffffffffffffffffffffffffffffffffffffffffffffffffffff1916827bffffffffffffffffffffffffffffffffffffffffffffffffffffffff1916145b80610618575061061782611322565b5b9050919050565b60606001805461062e90612c91565b80601f016020809104026020016040519081016040528092919081815260200182805461065a90612c91565b80156106a75780601f1061067c576101008083540402835291602001916106a7565b820191906000526020600020905b81548152906001019060200180831161068a57829003601f168201915b5050505050905090565b60006106bc8261138c565b6106fb576040517f08c379a00000000000000000000000000000000000000000000000000000000081526004016106f2906129e9565b60405180910390fd5b6009600083815260200190815260200160002060009054906101000a900473ffffffffffffffffffffffffffffffffffffffff169050919050565b600061074182610bba565b90508073ffffffffffffffffffffffffffffffffffffffff168373ffffffffffffffffffffffffffffffffffffffff1614156107b2576040517f08c379a00000000000000000000000000000000000000000000000000000000081526004016107a990612a29565b60405180910390fd5b8073ffffffffffffffffffffffffffffffffffffffff166107d16113f8565b73ffffffffffffffffffffffffffffffffffffffff16148061080057506107ff816107fa6113f8565b611028565b5b61083f576040517f08c379a000000000000000000000000000000000000000000000000000000000815260040161083690612949565b60405180910390fd5b6108498383611400565b505050565b60045481565b61085c6120aa565b6108658261138c565b6108a4576040517f08c379a000000000000000000000000000000000000000000000000000000000815260040161089b90612a09565b60405180910390fd5b600060405180606001604052806007600086815260200190815260200160002060009054906101000a900473ffffffffffffffffffffffffffffffffffffffff1673ffffffffffffffffffffffffffffffffffffffff1681526020016009600086815260200190815260200160002060009054906101000a900473ffffffffffffffffffffffffffffffffffffffff1673ffffffffffffffffffffffffffffffffffffffff16815260200160006003805461095e90612c91565b90501161097a57604051806020016040528060008152506109a6565b6003610985866114b9565b6040516020016109969291906127c1565b6040516020818303038152906040525b815250905080915050919050565b6109c56109bf6113f8565b82611666565b610a04576040517f08c379a00000000000000000000000000000000000000000000000000000000081526004016109fb90612a49565b60405180910390fd5b610a0f838383611744565b505050565b60008054906101000a900473ffffffffffffffffffffffffffffffffffffffff1673ffffffffffffffffffffffffffffffffffffffff163373ffffffffffffffffffffffffffffffffffffffff16146040518060400160405280600681526020017f303138303031000000000000000000000000000000000000000000000000000081525090610ada576040517f08c379a0000000000000000000000000000000000000000000000000000000008152600401610ad19190612867565b60405180910390fd5b506005546001600454610aed9190612b2f565b1115610b2e576040517f08c379a0000000000000000000000000000000000000000000000000000000008152600401610b2590612889565b60405180910390fd5b610b478160405180602001604052806000815250611995565b50565b610b5b610b556113f8565b82611666565b610b9a576040517f08c379a0000000000000000000000000000000000000000000000000000000008152600401610b9190612a49565b60405180910390fd5b610bb583838360405180602001604052806000815250611a02565b505050565b6000806007600084815260200190815260200160002060009054906101000a900473ffffffffffffffffffffffffffffffffffffffff169050600073ffffffffffffffffffffffffffffffffffffffff168173ffffffffffffffffffffffffffffffffffffffff161415610c63576040517f08c379a0000000000000000000000000000000000000000000000000000000008152600401610c5a90612989565b60405180910390fd5b80915050919050565b606060038054610c7b90612c91565b80601f0160208091040260200160405190810160405280929190818152602001828054610ca790612c91565b8015610cf45780601f10610cc957610100808354040283529160200191610cf4565b820191906000526020600020905b815481529060010190602001808311610cd757829003601f168201915b5050505050905090565b60008073ffffffffffffffffffffffffffffffffffffffff168273ffffffffffffffffffffffffffffffffffffffff161415610d6f576040517f08c379a0000000000000000000000000000000000000000000000000000000008152600401610d6690612969565b60405180910390fd5b600860008373ffffffffffffffffffffffffffffffffffffffff1673ffffffffffffffffffffffffffffffffffffffff168152602001908152602001600020549050919050565b6040518060400160405280600681526020017f303138303032000000000000000000000000000000000000000000000000000081525081565b60008054906101000a900473ffffffffffffffffffffffffffffffffffffffff1681565b606060028054610e2290612c91565b80601f0160208091040260200160405190810160405280929190818152602001828054610e4e90612c91565b8015610e9b5780601f10610e7057610100808354040283529160200191610e9b565b820191906000526020600020905b815481529060010190602001808311610e7e57829003601f168201915b5050505050905090565b610eb7610eb06113f8565b8383611a5e565b5050565b67016345785d8a00003414610f05576040517f08c379a0000000000000000000000000000000000000000000000000000000008152600401610efc90612a69565b60405180910390fd5b6005546001600454610f179190612b2f565b1115610f58576040517f08c379a0000000000000000000000000000000000000000000000000000000008152600401610f4f90612889565b60405180910390fd5b610f78610f636113f8565b60405180602001604052806000815250611995565b565b6060610f858261138c565b610fc4576040517f08c379a0000000000000000000000000000000000000000000000000000000008152600401610fbb90612a09565b60405180910390fd5b600060038054610fd390612c91565b905011610fef576040518060200160405280600081525061101b565b6003610ffa836114b9565b60405160200161100b9291906127c1565b6040516020818303038152906040525b9050919050565b60055481565b6000600a60008473ffffffffffffffffffffffffffffffffffffffff1673ffffffffffffffffffffffffffffffffffffffff16815260200190815260200160002060008373ffffffffffffffffffffffffffffffffffffffff1673ffffffffffffffffffffffffffffffffffffffff16815260200190815260200160002060009054906101000a900460ff16905092915050565b60008054906101000a900473ffffffffffffffffffffffffffffffffffffffff1673ffffffffffffffffffffffffffffffffffffffff163373ffffffffffffffffffffffffffffffffffffffff16146040518060400160405280600681526020017f303138303031000000000000000000000000000000000000000000000000000081525090611182576040517f08c379a00000000000000000000000000000000000000000000000000000000081526004016111799190612867565b60405180910390fd5b50600073ffffffffffffffffffffffffffffffffffffffff168173ffffffffffffffffffffffffffffffffffffffff1614156040518060400160405280600681526020017f30313830303200000000000000000000000000000000000000000000000000008152509061122b576040517f08c379a00000000000000000000000000000000000000000000000000000000081526004016112229190612867565b60405180910390fd5b508073ffffffffffffffffffffffffffffffffffffffff1660008054906101000a900473ffffffffffffffffffffffffffffffffffffffff1673ffffffffffffffffffffffffffffffffffffffff167f8be0079c531659141344cd1fd0a4f28419497f9722a3daafe3b4186f6b6457e060405160405180910390a3806000806101000a81548173ffffffffffffffffffffffffffffffffffffffff021916908373ffffffffffffffffffffffffffffffffffffffff16021790555050565b6040518060400160405280600681526020017f303138303031000000000000000000000000000000000000000000000000000081525081565b60007f01ffc9a7000000000000000000000000000000000000000000000000000000007bffffffffffffffffffffffffffffffffffffffffffffffffffffffff1916827bffffffffffffffffffffffffffffffffffffffffffffffffffffffff1916149050919050565b60008073ffffffffffffffffffffffffffffffffffffffff166007600084815260200190815260200160002060009054906101000a900473ffffffffffffffffffffffffffffffffffffffff1673ffffffffffffffffffffffffffffffffffffffff1614159050919050565b600033905090565b816009600083815260200190815260200160002060006101000a81548173ffffffffffffffffffffffffffffffffffffffff021916908373ffffffffffffffffffffffffffffffffffffffff160217905550808273ffffffffffffffffffffffffffffffffffffffff1661147383610bba565b73ffffffffffffffffffffffffffffffffffffffff167f8c5be1e5ebec7d5bd14f71427d1e84f3dd0314c0f7b2291e5b200ac8c7c3b92560405160405180910390a45050565b60606000821415611501576040518060400160405280600181526020017f30000000000000000000000000000000000000000000000000000000000000008152509050611661565b600082905060005b6000821461153357808061151c90612cc3565b915050600a8261152c9190612b85565b9150611509565b60008167ffffffffffffffff811115611575577f4e487b7100000000000000000000000000000000000000000000000000000000600052604160045260246000fd5b6040519080825280601f01601f1916602001820160405280156115a75781602001600182028036833780820191505090505b5090505b6000851461165a576001826115c09190612bb6565b9150600a856115cf9190612d0c565b60306115db9190612b2f565b60f81b818381518110611617577f4e487b7100000000000000000000000000000000000000000000000000000000600052603260045260246000fd5b60200101907effffffffffffffffffffffffffffffffffffffffffffffffffffffffffffff1916908160001a905350600a856116539190612b85565b94506115ab565b8093505050505b919050565b60006116718261138c565b6116b0576040517f08c379a00000000000000000000000000000000000000000000000000000000081526004016116a790612929565b60405180910390fd5b60006116bb83610bba565b90508073ffffffffffffffffffffffffffffffffffffffff168473ffffffffffffffffffffffffffffffffffffffff16148061172a57508373ffffffffffffffffffffffffffffffffffffffff16611712846106b1565b73ffffffffffffffffffffffffffffffffffffffff16145b8061173b575061173a8185611028565b5b91505092915050565b8273ffffffffffffffffffffffffffffffffffffffff1661176482610bba565b73ffffffffffffffffffffffffffffffffffffffff16146117ba576040517f08c379a00000000000000000000000000000000000000000000000000000000081526004016117b1906128c9565b60405180910390fd5b600073ffffffffffffffffffffffffffffffffffffffff168273ffffffffffffffffffffffffffffffffffffffff16141561182a576040517f08c379a0000000000000000000000000000000000000000000000000000000008152600401611821906128e9565b60405180910390fd5b611835600082611400565b6001600860008573ffffffffffffffffffffffffffffffffffffffff1673ffffffffffffffffffffffffffffffffffffffff16815260200190815260200160002060008282546118859190612bb6565b925050819055506001600860008473ffffffffffffffffffffffffffffffffffffffff1673ffffffffffffffffffffffffffffffffffffffff16815260200190815260200160002060008282546118dc9190612b2f565b92505081905550816007600083815260200190815260200160002060006101000a81548173ffffffffffffffffffffffffffffffffffffffff021916908373ffffffffffffffffffffffffffffffffffffffff160217905550808273ffffffffffffffffffffffffffffffffffffffff168473ffffffffffffffffffffffffffffffffffffffff167fddf252ad1be2c89b69c2b068fc378daa952ba7f163c4a11628f55a4df523b3ef60405160405180910390a4505050565b600060016004546119a69190612b2f565b90506119b56000848385611bcb565b6119f4576040517f08c379a00000000000000000000000000000000000000000000000000000000081526004016119eb906128a9565b60405180910390fd5b6119fd83611d62565b505050565b611a0d848484611744565b611a1984848484611bcb565b611a58576040517f08c379a0000000000000000000000000000000000000000000000000000000008152600401611a4f906128a9565b60405180910390fd5b50505050565b8173ffffffffffffffffffffffffffffffffffffffff168373ffffffffffffffffffffffffffffffffffffffff161415611acd576040517f08c379a0000000000000000000000000000000000000000000000000000000008152600401611ac490612909565b60405180910390fd5b80600a60008573ffffffffffffffffffffffffffffffffffffffff1673ffffffffffffffffffffffffffffffffffffffff16815260200190815260200160002060008473ffffffffffffffffffffffffffffffffffffffff1673ffffffffffffffffffffffffffffffffffffffff16815260200190815260200160002060006101000a81548160ff0219169083151502179055508173ffffffffffffffffffffffffffffffffffffffff168373ffffffffffffffffffffffffffffffffffffffff167f17307eab39ab6107e8899845ad3d59bd9653f200f220920489ca2b5937696c3183604051611bbe919061284c565b60405180910390a3505050565b6000611bec8473ffffffffffffffffffffffffffffffffffffffff16611fa2565b15611d55578373ffffffffffffffffffffffffffffffffffffffff1663150b7a02611c156113f8565b8786866040518563ffffffff1660e01b8152600401611c379493929190612800565b602060405180830381600087803b158015611c5157600080fd5b505af1925050508015611c8257506040513d601f19601f82011682018060405250810190611c7f9190612358565b60015b611d05573d8060008114611cb2576040519150601f19603f3d011682016040523d82523d6000602084013e611cb7565b606091505b50600081511415611cfd576040517f08c379a0000000000000000000000000000000000000000000000000000000008152600401611cf4906128a9565b60405180910390fd5b805181602001fd5b63150b7a0260e01b7bffffffffffffffffffffffffffffffffffffffffffffffffffffffff1916817bffffffffffffffffffffffffffffffffffffffffffffffffffffffff191614915050611d5a565b600190505b949350505050565b600073ffffffffffffffffffffffffffffffffffffffff168173ffffffffffffffffffffffffffffffffffffffff161415611dd2576040517f08c379a0000000000000000000000000000000000000000000000000000000008152600401611dc9906129c9565b60405180910390fd5b60006001600454611de39190612b2f565b905060046000815480929190611df890612cc3565b91905055506001600860008473ffffffffffffffffffffffffffffffffffffffff1673ffffffffffffffffffffffffffffffffffffffff1681526020019081526020016000206000828254611e4d9190612b2f565b92505081905550816007600083815260200190815260200160002060006101000a81548173ffffffffffffffffffffffffffffffffffffffff021916908373ffffffffffffffffffffffffffffffffffffffff160217905550611f3a8160038054611eb790612c91565b80601f0160208091040260200160405190810160405280929190818152602001828054611ee390612c91565b8015611f305780601f10611f0557610100808354040283529160200191611f30565b820191906000526020600020905b815481529060010190602001808311611f1357829003601f168201915b5050505050611fc5565b611f42612039565b808273ffffffffffffffffffffffffffffffffffffffff16600073ffffffffffffffffffffffffffffffffffffffff167fddf252ad1be2c89b69c2b068fc378daa952ba7f163c4a11628f55a4df523b3ef60405160405180910390a45050565b6000808273ffffffffffffffffffffffffffffffffffffffff163b119050919050565b611fce8261138c565b61200d576040517f08c379a0000000000000000000000000000000000000000000000000000000008152600401612004906129a9565b60405180910390fd5b80600b600084815260200190815260200160002090805190602001906120349291906120f7565b505050565b6000600660009054906101000a900473ffffffffffffffffffffffffffffffffffffffff1690508073ffffffffffffffffffffffffffffffffffffffff166108fc349081150290604051600060405180830381858888f193505050501580156120a6573d6000803e3d6000fd5b5050565b6040518060600160405280600073ffffffffffffffffffffffffffffffffffffffff168152602001600073ffffffffffffffffffffffffffffffffffffffff168152602001606081525090565b82805461210390612c91565b90600052602060002090601f016020900481019282612125576000855561216c565b82601f1061213e57805160ff191683800117855561216c565b8280016001018555821561216c579182015b8281111561216b578251825591602001919060010190612150565b5b509050612179919061217d565b5090565b5b8082111561219657600081600090555060010161217e565b5090565b6000813590506121a981613233565b92915050565b6000813590506121be8161324a565b92915050565b6000813590506121d381613261565b92915050565b6000815190506121e881613261565b92915050565b6000813590506121fd81613278565b92915050565b60006020828403121561221557600080fd5b60006122238482850161219a565b91505092915050565b6000806040838503121561223f57600080fd5b600061224d8582860161219a565b925050602061225e8582860161219a565b9150509250929050565b60008060006060848603121561227d57600080fd5b600061228b8682870161219a565b935050602061229c8682870161219a565b92505060406122ad868287016121ee565b9150509250925092565b600080604083850312156122ca57600080fd5b60006122d88582860161219a565b92505060206122e9858286016121af565b9150509250929050565b6000806040838503121561230657600080fd5b60006123148582860161219a565b9250506020612325858286016121ee565b9150509250929050565b60006020828403121561234157600080fd5b600061234f848285016121c4565b91505092915050565b60006020828403121561236a57600080fd5b6000612378848285016121d9565b91505092915050565b60006020828403121561239357600080fd5b60006123a1848285016121ee565b91505092915050565b6123b381612bea565b82525050565b6123c281612bea565b82525050565b6123d181612bfc565b82525050565b60006123e282612adb565b6123ec8185612af1565b93506123fc818560208601612c5e565b61240581612dca565b840191505092915050565b600061241b82612ae6565b6124258185612b02565b9350612435818560208601612c5e565b61243e81612dca565b840191505092915050565b600061245482612ae6565b61245e8185612b13565b935061246e818560208601612c5e565b61247781612dca565b840191505092915050565b600061248d82612ae6565b6124978185612b24565b93506124a7818560208601612c5e565b80840191505092915050565b600081546124c081612c91565b6124ca8186612b24565b945060018216600081146124e557600181146124f657612529565b60ff19831686528186019350612529565b6124ff85612ac6565b60005b8381101561252157815481890152600182019150602081019050612502565b838801955050505b50505092915050565b600061253f600f83612b13565b915061254a82612ddb565b602082019050919050565b6000612562603283612b13565b915061256d82612e04565b604082019050919050565b6000612585602583612b13565b915061259082612e53565b604082019050919050565b60006125a8602483612b13565b91506125b382612ea2565b604082019050919050565b60006125cb601983612b13565b91506125d682612ef1565b602082019050919050565b60006125ee602c83612b13565b91506125f982612f1a565b604082019050919050565b6000612611603883612b13565b915061261c82612f69565b604082019050919050565b6000612634602a83612b13565b915061263f82612fb8565b604082019050919050565b6000612657602983612b13565b915061266282613007565b604082019050919050565b600061267a602e83612b13565b915061268582613056565b604082019050919050565b600061269d602083612b13565b91506126a8826130a5565b602082019050919050565b60006126c0602c83612b13565b91506126cb826130ce565b604082019050919050565b60006126e3602f83612b13565b91506126ee8261311d565b604082019050919050565b6000612706602183612b13565b91506127118261316c565b604082019050919050565b6000612729603183612b13565b9150612734826131bb565b604082019050919050565b600061274c600e83612b13565b91506127578261320a565b602082019050919050565b600060608301600083015161277a60008601826123aa565b50602083015161278d60208601826123aa565b50604083015184820360408601526127a58282612410565b9150508091505092915050565b6127bb81612c54565b82525050565b60006127cd82856124b3565b91506127d98284612482565b91508190509392505050565b60006020820190506127fa60008301846123b9565b92915050565b600060808201905061281560008301876123b9565b61282260208301866123b9565b61282f60408301856127b2565b818103606083015261284181846123d7565b905095945050505050565b600060208201905061286160008301846123c8565b92915050565b600060208201905081810360008301526128818184612449565b905092915050565b600060208201905081810360008301526128a281612532565b9050919050565b600060208201905081810360008301526128c281612555565b9050919050565b600060208201905081810360008301526128e281612578565b9050919050565b600060208201905081810360008301526129028161259b565b9050919050565b60006020820190508181036000830152612922816125be565b9050919050565b60006020820190508181036000830152612942816125e1565b9050919050565b6000602082019050818103600083015261296281612604565b9050919050565b6000602082019050818103600083015261298281612627565b9050919050565b600060208201905081810360008301526129a28161264a565b9050919050565b600060208201905081810360008301526129c28161266d565b9050919050565b600060208201905081810360008301526129e281612690565b9050919050565b60006020820190508181036000830152612a02816126b3565b9050919050565b60006020820190508181036000830152612a22816126d6565b9050919050565b60006020820190508181036000830152612a42816126f9565b9050919050565b60006020820190508181036000830152612a628161271c565b9050919050565b60006020820190508181036000830152612a828161273f565b9050919050565b60006020820190508181036000830152612aa38184612762565b905092915050565b6000602082019050612ac060008301846127b2565b92915050565b60008190508160005260206000209050919050565b600081519050919050565b600081519050919050565b600082825260208201905092915050565b600082825260208201905092915050565b600082825260208201905092915050565b600081905092915050565b6000612b3a82612c54565b9150612b4583612c54565b9250827fffffffffffffffffffffffffffffffffffffffffffffffffffffffffffffffff03821115612b7a57612b79612d3d565b5b828201905092915050565b6000612b9082612c54565b9150612b9b83612c54565b925082612bab57612baa612d6c565b5b828204905092915050565b6000612bc182612c54565b9150612bcc83612c54565b925082821015612bdf57612bde612d3d565b5b828203905092915050565b6000612bf582612c34565b9050919050565b60008115159050919050565b60007fffffffff0000000000000000000000000000000000000000000000000000000082169050919050565b600073ffffffffffffffffffffffffffffffffffffffff82169050919050565b6000819050919050565b60005b83811015612c7c578082015181840152602081019050612c61565b83811115612c8b576000848401525b50505050565b60006002820490506001821680612ca957607f821691505b60208210811415612cbd57612cbc612d9b565b5b50919050565b6000612cce82612c54565b91507fffffffffffffffffffffffffffffffffffffffffffffffffffffffffffffffff821415612d0157612d00612d3d565b5b600182019050919050565b6000612d1782612c54565b9150612d2283612c54565b925082612d3257612d31612d6c565b5b828206905092915050565b7f4e487b7100000000000000000000000000000000000000000000000000000000600052601160045260246000fd5b7f4e487b7100000000000000000000000000000000000000000000000000000000600052601260045260246000fd5b7f4e487b7100000000000000000000000000000000000000000000000000000000600052602260045260246000fd5b6000601f19601f8301169050919050565b7f4e6f206d6f726520746f206d696e740000000000000000000000000000000000600082015250565b7f4552433732313a207472616e7366657220746f206e6f6e20455243373231526560008201527f63656976657220696d706c656d656e7465720000000000000000000000000000602082015250565b7f4552433732313a207472616e736665722066726f6d20696e636f72726563742060008201527f6f776e6572000000000000000000000000000000000000000000000000000000602082015250565b7f4552433732313a207472616e7366657220746f20746865207a65726f2061646460008201527f7265737300000000000000000000000000000000000000000000000000000000602082015250565b7f4552433732313a20617070726f766520746f2063616c6c657200000000000000600082015250565b7f4552433732313a206f70657261746f7220717565727920666f72206e6f6e657860008201527f697374656e7420746f6b656e0000000000000000000000000000000000000000602082015250565b7f4552433732313a20617070726f76652063616c6c6572206973206e6f74206f7760008201527f6e6572206e6f7220617070726f76656420666f7220616c6c0000000000000000602082015250565b7f4552433732313a2062616c616e636520717565727920666f7220746865207a6560008201527f726f206164647265737300000000000000000000000000000000000000000000602082015250565b7f4552433732313a206f776e657220717565727920666f72206e6f6e657869737460008201527f656e7420746f6b656e0000000000000000000000000000000000000000000000602082015250565b7f45524337323155524953746f726167653a2055524920736574206f66206e6f6e60008201527f6578697374656e7420746f6b656e000000000000000000000000000000000000602082015250565b7f4552433732313a206d696e7420746f20746865207a65726f2061646472657373600082015250565b7f4552433732313a20617070726f76656420717565727920666f72206e6f6e657860008201527f697374656e7420746f6b656e0000000000000000000000000000000000000000602082015250565b7f4552433732314d657461646174613a2055524920717565727920666f72206e6f60008201527f6e6578697374656e7420746f6b656e0000000000000000000000000000000000602082015250565b7f4552433732313a20617070726f76616c20746f2063757272656e74206f776e6560008201527f7200000000000000000000000000000000000000000000000000000000000000602082015250565b7f4552433732313a207472616e736665722063616c6c6572206973206e6f74206f60008201527f776e6572206e6f7220617070726f766564000000000000000000000000000000602082015250565b7f4e65656420302e31206574686572000000000000000000000000000000000000600082015250565b61323c81612bea565b811461324757600080fd5b50565b61325381612bfc565b811461325e57600080fd5b50565b61326a81612c08565b811461327557600080fd5b50565b61328181612c54565b811461328c57600080fd5b5056fea26469706673582212203576b0f47d560a9fd53200b7dd8967920b6d9e0b9fc049f8d47a7999573d7d5d64736f6c63430008040033",
  "linkReferences": {},
  "deployedLinkReferences": {}
}