{
  "_format": "hh-sol-artifact-1",
  "contractName": "Market",
  "sourceName": "contracts/nft/Market.sol",
  "abi": [
    {
      "inputs": [
        {
          "internalType": "contract ERC721",
          "name": "_nft",
          "type": "address"
        }
      ],
      "stateMutability": "nonpayable",
      "type": "constructor"
    },
    {
      "anonymous": false,
      "inputs": [
        {
          "indexed": true,
          "internalType": "address",
          "name": "initiator",
          "type": "address"
        },
        {
          "indexed": true,
          "internalType": "uint256",
          "name": "id",
          "type": "uint256"
        },
        {
          "indexed": false,
          "internalType": "uint256",
          "name": "timestamp",
          "type": "uint256"
        }
      ],
      "name": "itemDelist",
      "type": "event"
    },
    {
      "anonymous": false,
      "inputs": [
        {
          "indexed": true,
          "internalType": "address",
          "name": "seller",
          "type": "address"
        },
        {
          "indexed": true,
          "internalType": "uint256",
          "name": "id",
          "type": "uint256"
        },
        {
          "indexed": false,
          "internalType": "uint256",
          "name": "price",
          "type": "uint256"
        },
        {
          "indexed": false,
          "internalType": "uint256",
          "name": "timestamp",
          "type": "uint256"
        }
      ],
      "name": "itemList",
      "type": "event"
    },
    {
      "anonymous": false,
      "inputs": [
        {
          "indexed": true,
          "internalType": "address",
          "name": "seller",
          "type": "address"
        },
        {
          "indexed": true,
          "internalType": "address",
          "name": "buyer",
          "type": "address"
        },
        {
          "indexed": true,
          "internalType": "uint256",
          "name": "id",
          "type": "uint256"
        },
        {
          "indexed": false,
          "internalType": "uint256",
          "name": "price",
          "type": "uint256"
        },
        {
          "indexed": false,
          "internalType": "uint256",
          "name": "timestamp",
          "type": "uint256"
        }
      ],
      "name": "itemSell",
      "type": "event"
    },
    {
      "inputs": [
        {
          "internalType": "uint256",
          "name": "_id",
          "type": "uint256"
        }
      ],
      "name": "buyItem",
      "outputs": [],
      "stateMutability": "payable",
      "type": "function"
    },
    {
      "inputs": [
        {
          "internalType": "uint256",
          "name": "_id",
          "type": "uint256"
        }
      ],
      "name": "delistItem",
      "outputs": [],
      "stateMutability": "nonpayable",
      "type": "function"
    },
    {
      "inputs": [
        {
          "internalType": "uint256",
          "name": "_id",
          "type": "uint256"
        }
      ],
      "name": "getItem",
      "outputs": [
        {
          "components": [
            {
              "internalType": "uint256",
              "name": "idNft",
              "type": "uint256"
            },
            {
              "internalType": "string",
              "name": "url",
              "type": "string"
            },
            {
              "internalType": "uint256",
              "name": "price",
              "type": "uint256"
            },
            {
              "internalType": "string",
              "name": "description",
              "type": "string"
            },
            {
              "internalType": "uint256",
              "name": "startSale",
              "type": "uint256"
            },
            {
              "internalType": "uint256",
              "name": "endSale",
              "type": "uint256"
            },
            {
              "internalType": "address",
              "name": "seller",
              "type": "address"
            }
          ],
          "internalType": "struct Market.Item",
          "name": "",
          "type": "tuple"
        }
      ],
      "stateMutability": "view",
      "type": "function"
    },
    {
      "inputs": [],
      "name": "getList",
      "outputs": [
        {
          "components": [
            {
              "internalType": "uint256",
              "name": "idNft",
              "type": "uint256"
            },
            {
              "internalType": "string",
              "name": "url",
              "type": "string"
            },
            {
              "internalType": "uint256",
              "name": "price",
              "type": "uint256"
            },
            {
              "internalType": "string",
              "name": "description",
              "type": "string"
            },
            {
              "internalType": "uint256",
              "name": "startSale",
              "type": "uint256"
            },
            {
              "internalType": "uint256",
              "name": "endSale",
              "type": "uint256"
            },
            {
              "internalType": "address",
              "name": "seller",
              "type": "address"
            }
          ],
          "internalType": "struct Market.Item[]",
          "name": "",
          "type": "tuple[]"
        }
      ],
      "stateMutability": "view",
      "type": "function"
    },
    {
      "inputs": [
        {
          "internalType": "uint256",
          "name": "",
          "type": "uint256"
        }
      ],
      "name": "items",
      "outputs": [
        {
          "internalType": "uint256",
          "name": "idNft",
          "type": "uint256"
        },
        {
          "internalType": "string",
          "name": "url",
          "type": "string"
        },
        {
          "internalType": "uint256",
          "name": "price",
          "type": "uint256"
        },
        {
          "internalType": "string",
          "name": "description",
          "type": "string"
        },
        {
          "internalType": "uint256",
          "name": "startSale",
          "type": "uint256"
        },
        {
          "internalType": "uint256",
          "name": "endSale",
          "type": "uint256"
        },
        {
          "internalType": "address",
          "name": "seller",
          "type": "address"
        }
      ],
      "stateMutability": "view",
      "type": "function"
    },
    {
      "inputs": [
        {
          "internalType": "uint256",
          "name": "_id",
          "type": "uint256"
        },
        {
          "internalType": "uint256",
          "name": "_price",
          "type": "uint256"
        },
        {
          "internalType": "string",
          "name": "_description",
          "type": "string"
        },
        {
          "internalType": "uint256",
          "name": "_endSale",
          "type": "uint256"
        }
      ],
      "name": "listItem",
      "outputs": [],
      "stateMutability": "nonpayable",
      "type": "function"
    },
    {
      "inputs": [],
      "name": "nft",
      "outputs": [
        {
          "internalType": "contract ERC721",
          "name": "",
          "type": "address"
        }
      ],
      "stateMutability": "view",
      "type": "function"
    },
    {
      "inputs": [
        {
          "internalType": "address payable",
          "name": "_to",
          "type": "address"
        }
      ],
      "name": "withdraw",
      "outputs": [],
      "stateMutability": "nonpayable",
      "type": "function"
    }
  ],
  "bytecode": "0x6080604052600a60025560006003553480156200001b57600080fd5b5060405162002772380380620027728339818101604052810190620000419190620000e0565b806000806101000a81548173ffffffffffffffffffffffffffffffffffffffff021916908373ffffffffffffffffffffffffffffffffffffffff16021790555033600160006101000a81548173ffffffffffffffffffffffffffffffffffffffff021916908373ffffffffffffffffffffffffffffffffffffffff160217905550506200016e565b600081519050620000da8162000154565b92915050565b600060208284031215620000f357600080fd5b60006200010384828501620000c9565b91505092915050565b6000620001198262000134565b9050919050565b60006200012d826200010c565b9050919050565b600073ffffffffffffffffffffffffffffffffffffffff82169050919050565b6200015f8162000120565b81146200016b57600080fd5b50565b6125f4806200017e6000396000f3fe60806040526004361061007b5760003560e01c8063942b765a1161004e578063942b765a1461013a578063ae71343614610165578063bfb231d21461018e578063e7fb74c7146101d15761007b565b806310061631146100805780633129e773146100a957806347ccca02146100e657806351cff8d914610111575b600080fd5b34801561008c57600080fd5b506100a760048036038101906100a29190611ad8565b6101ed565b005b3480156100b557600080fd5b506100d060048036038101906100cb9190611ad8565b6104cb565b6040516100dd9190611fcb565b60405180910390f35b3480156100f257600080fd5b506100fb610721565b6040516101089190611f10565b60405180910390f35b34801561011d57600080fd5b5061013860048036038101906101339190611a6e565b610745565b005b34801561014657600080fd5b5061014f61081f565b60405161015c9190611eee565b60405180910390f35b34801561017157600080fd5b5061018c60048036038101906101879190611b01565b610a20565b005b34801561019a57600080fd5b506101b560048036038101906101b09190611ad8565b610df5565b6040516101c89796959493929190612008565b60405180910390f35b6101eb60048036038101906101e69190611ad8565b610f77565b005b60006101f8826113e4565b9050606581141561023e576040517f08c379a000000000000000000000000000000000000000000000000000000000815260040161023590611f2b565b60405180910390fd5b60048181548110610278577f4e487b7100000000000000000000000000000000000000000000000000000000600052603260045260246000fd5b906000526020600020906007020160060160009054906101000a900473ffffffffffffffffffffffffffffffffffffffff1673ffffffffffffffffffffffffffffffffffffffff163373ffffffffffffffffffffffffffffffffffffffff1614806103305750600160009054906101000a900473ffffffffffffffffffffffffffffffffffffffff1673ffffffffffffffffffffffffffffffffffffffff163373ffffffffffffffffffffffffffffffffffffffff16145b61036f576040517f08c379a000000000000000000000000000000000000000000000000000000000815260040161036690611f8b565b60405180910390fd5b6000600482815481106103ab577f4e487b7100000000000000000000000000000000000000000000000000000000600052603260045260246000fd5b906000526020600020906007020160060160009054906101000a900473ffffffffffffffffffffffffffffffffffffffff16905060008054906101000a900473ffffffffffffffffffffffffffffffffffffffff1673ffffffffffffffffffffffffffffffffffffffff1663bcf0dd8e3083866040518463ffffffff1660e01b815260040161043c93929190611eb7565b600060405180830381600087803b15801561045657600080fd5b505af115801561046a573d6000803e3d6000fd5b5050505061047782611473565b823373ffffffffffffffffffffffffffffffffffffffff167fabc3171d7d5979416cf58b1b720079ed4fff828e48eb43adc1f5ddeb24c593ef426040516104be9190611fed565b60405180910390a3505050565b6104d3611773565b60006104de836113e4565b90506065811415610524576040517f08c379a000000000000000000000000000000000000000000000000000000000815260040161051b90611f2b565b60405180910390fd5b6004818154811061055e577f4e487b7100000000000000000000000000000000000000000000000000000000600052603260045260246000fd5b90600052602060002090600702016040518060e00160405290816000820154815260200160018201805461059190612333565b80601f01602080910402602001604051908101604052809291908181526020018280546105bd90612333565b801561060a5780601f106105df5761010080835404028352916020019161060a565b820191906000526020600020905b8154815290600101906020018083116105ed57829003601f168201915b505050505081526020016002820154815260200160038201805461062d90612333565b80601f016020809104026020016040519081016040528092919081815260200182805461065990612333565b80156106a65780601f1061067b576101008083540402835291602001916106a6565b820191906000526020600020905b81548152906001019060200180831161068957829003601f168201915b5050505050815260200160048201548152602001600582015481526020016006820160009054906101000a900473ffffffffffffffffffffffffffffffffffffffff1673ffffffffffffffffffffffffffffffffffffffff1673ffffffffffffffffffffffffffffffffffffffff1681525050915050919050565b60008054906101000a900473ffffffffffffffffffffffffffffffffffffffff1681565b3373ffffffffffffffffffffffffffffffffffffffff16600160009054906101000a900473ffffffffffffffffffffffffffffffffffffffff1673ffffffffffffffffffffffffffffffffffffffff16146107d5576040517f08c379a00000000000000000000000000000000000000000000000000000000081526004016107cc90611f4b565b60405180910390fd5b8073ffffffffffffffffffffffffffffffffffffffff166108fc479081150290604051600060405180830381858888f1935050505015801561081b573d6000803e3d6000fd5b5050565b60606004805480602002602001604051908101604052809291908181526020016000905b82821015610a1757838290600052602060002090600702016040518060e00160405290816000820154815260200160018201805461088090612333565b80601f01602080910402602001604051908101604052809291908181526020018280546108ac90612333565b80156108f95780601f106108ce576101008083540402835291602001916108f9565b820191906000526020600020905b8154815290600101906020018083116108dc57829003601f168201915b505050505081526020016002820154815260200160038201805461091c90612333565b80601f016020809104026020016040519081016040528092919081815260200182805461094890612333565b80156109955780601f1061096a57610100808354040283529160200191610995565b820191906000526020600020905b81548152906001019060200180831161097857829003601f168201915b5050505050815260200160048201548152602001600582015481526020016006820160009054906101000a900473ffffffffffffffffffffffffffffffffffffffff1673ffffffffffffffffffffffffffffffffffffffff1673ffffffffffffffffffffffffffffffffffffffff168152505081526020019060010190610843565b50505050905090565b3073ffffffffffffffffffffffffffffffffffffffff1660008054906101000a900473ffffffffffffffffffffffffffffffffffffffff1673ffffffffffffffffffffffffffffffffffffffff1663081812fc866040518263ffffffff1660e01b8152600401610a909190611fed565b60206040518083038186803b158015610aa857600080fd5b505afa158015610abc573d6000803e3d6000fd5b505050506040513d601f19601f82011682018060405250810190610ae09190611a45565b73ffffffffffffffffffffffffffffffffffffffff1614610b36576040517f08c379a0000000000000000000000000000000000000000000000000000000008152600401610b2d90611fab565b60405180910390fd5b60008060009054906101000a900473ffffffffffffffffffffffffffffffffffffffff1673ffffffffffffffffffffffffffffffffffffffff1663c87b56dd866040518263ffffffff1660e01b8152600401610b929190611fed565b60006040518083038186803b158015610baa57600080fd5b505afa158015610bbe573d6000803e3d6000fd5b505050506040513d6000823e3d601f19601f82011682018060405250810190610be79190611a97565b905060006040518060e001604052808781526020018381526020018681526020018581526020014281526020018481526020013373ffffffffffffffffffffffffffffffffffffffff1681525090506004819080600181540180825580915050600190039060005260206000209060070201600090919091909150600082015181600001556020820151816001019080519060200190610c889291906117c6565b50604082015181600201556060820151816003019080519060200190610caf9291906117c6565b506080820151816004015560a0820151816005015560c08201518160060160006101000a81548173ffffffffffffffffffffffffffffffffffffffff021916908373ffffffffffffffffffffffffffffffffffffffff160217905550505060008054906101000a900473ffffffffffffffffffffffffffffffffffffffff1673ffffffffffffffffffffffffffffffffffffffff1663bcf0dd8e3330896040518463ffffffff1660e01b8152600401610d6a93929190611eb7565b600060405180830381600087803b158015610d8457600080fd5b505af1158015610d98573d6000803e3d6000fd5b50505050853373ffffffffffffffffffffffffffffffffffffffff167fe9d17b30ec72b33f37789fec6abc80a3547e5410ac2130c076d509bdce0a22248742604051610de5929190612085565b60405180910390a3505050505050565b60048181548110610e0557600080fd5b9060005260206000209060070201600091509050806000015490806001018054610e2e90612333565b80601f0160208091040260200160405190810160405280929190818152602001828054610e5a90612333565b8015610ea75780601f10610e7c57610100808354040283529160200191610ea7565b820191906000526020600020905b815481529060010190602001808311610e8a57829003601f168201915b505050505090806002015490806003018054610ec290612333565b80601f0160208091040260200160405190810160405280929190818152602001828054610eee90612333565b8015610f3b5780601f10610f1057610100808354040283529160200191610f3b565b820191906000526020600020905b815481529060010190602001808311610f1e57829003601f168201915b5050505050908060040154908060050154908060060160009054906101000a900473ffffffffffffffffffffffffffffffffffffffff16905087565b6000610f82826113e4565b90506065811415610fc8576040517f08c379a0000000000000000000000000000000000000000000000000000000008152600401610fbf90611f2b565b60405180910390fd5b60048181548110611002577f4e487b7100000000000000000000000000000000000000000000000000000000600052603260045260246000fd5b906000526020600020906007020160060160009054906101000a900473ffffffffffffffffffffffffffffffffffffffff1673ffffffffffffffffffffffffffffffffffffffff163373ffffffffffffffffffffffffffffffffffffffff1614156110a2576040517f08c379a000000000000000000000000000000000000000000000000000000000815260040161109990611f2b565b60405180910390fd5b600481815481106110dc577f4e487b7100000000000000000000000000000000000000000000000000000000600052603260045260246000fd5b906000526020600020906007020160020154341461112f576040517f08c379a000000000000000000000000000000000000000000000000000000000815260040161112690611f6b565b60405180910390fd5b3460036000828254611141919061216a565b92505081905550600060048281548110611184577f4e487b7100000000000000000000000000000000000000000000000000000000600052603260045260246000fd5b906000526020600020906007020160060160009054906101000a900473ffffffffffffffffffffffffffffffffffffffff1690506000600483815481106111f4577f4e487b7100000000000000000000000000000000000000000000000000000000600052603260045260246000fd5b9060005260206000209060070201600201549050600060048481548110611244577f4e487b7100000000000000000000000000000000000000000000000000000000600052603260045260246000fd5b906000526020600020906007020160060160009054906101000a900473ffffffffffffffffffffffffffffffffffffffff16905060006064605a3461128991906121f1565b61129391906121c0565b90508173ffffffffffffffffffffffffffffffffffffffff166108fc829081150290604051600060405180830381858888f193505050501580156112db573d6000803e3d6000fd5b5060008054906101000a900473ffffffffffffffffffffffffffffffffffffffff1673ffffffffffffffffffffffffffffffffffffffff1663bcf0dd8e3033896040518463ffffffff1660e01b815260040161133993929190611eb7565b600060405180830381600087803b15801561135357600080fd5b505af1158015611367573d6000803e3d6000fd5b5050505061137485611473565b853373ffffffffffffffffffffffffffffffffffffffff168573ffffffffffffffffffffffffffffffffffffffff167f2dc2cd3211edad39e14f38c605060b74be0b028b8769142e5c03bbbecbec9bb286426040516113d4929190612085565b60405180910390a4505050505050565b600080600090505b600480549050811015611468578260048281548110611434577f4e487b7100000000000000000000000000000000000000000000000000000000600052603260045260246000fd5b9060005260206000209060070201600001541415611455578091505061146e565b808061146090612396565b9150506113ec565b50606590505b919050565b60008190506000600160048054905061148c919061224b565b9050808214156115535760048054806114ce577f4e487b7100000000000000000000000000000000000000000000000000000000600052603160045260246000fd5b60019003818190600052602060002090600702016000808201600090556001820160006114fb919061184c565b6002820160009055600382016000611513919061184c565b600482016000905560058201600090556006820160006101000a81549073ffffffffffffffffffffffffffffffffffffffff02191690555050905561176e565b6004818154811061158d577f4e487b7100000000000000000000000000000000000000000000000000000000600052603260045260246000fd5b9060005260206000209060070201600483815481106115d5577f4e487b7100000000000000000000000000000000000000000000000000000000600052603260045260246000fd5b906000526020600020906007020160008201548160000155600182018160010190805461160190612333565b61160c92919061188c565b5060028201548160020155600382018160030190805461162b90612333565b61163692919061188c565b5060048201548160040155600582015481600501556006820160009054906101000a900473ffffffffffffffffffffffffffffffffffffffff168160060160006101000a81548173ffffffffffffffffffffffffffffffffffffffff021916908373ffffffffffffffffffffffffffffffffffffffff16021790555090505060048054806116ed577f4e487b7100000000000000000000000000000000000000000000000000000000600052603160045260246000fd5b600190038181906000526020600020906007020160008082016000905560018201600061171a919061184c565b6002820160009055600382016000611732919061184c565b600482016000905560058201600090556006820160006101000a81549073ffffffffffffffffffffffffffffffffffffffff0219169055505090555b505050565b6040518060e00160405280600081526020016060815260200160008152602001606081526020016000815260200160008152602001600073ffffffffffffffffffffffffffffffffffffffff1681525090565b8280546117d290612333565b90600052602060002090601f0160209004810192826117f4576000855561183b565b82601f1061180d57805160ff191683800117855561183b565b8280016001018555821561183b579182015b8281111561183a57825182559160200191906001019061181f565b5b5090506118489190611919565b5090565b50805461185890612333565b6000825580601f1061186a5750611889565b601f0160209004906000526020600020908101906118889190611919565b5b50565b82805461189890612333565b90600052602060002090601f0160209004810192826118ba5760008555611908565b82601f106118cb5780548555611908565b8280016001018555821561190857600052602060002091601f016020900482015b828111156119075782548255916001019190600101906118ec565b5b5090506119159190611919565b5090565b5b8082111561193257600081600090555060010161191a565b5090565b6000611949611944846120d3565b6120ae565b90508281526020810184848401111561196157600080fd5b61196c8482856122f1565b509392505050565b6000611987611982846120d3565b6120ae565b90508281526020810184848401111561199f57600080fd5b6119aa848285612300565b509392505050565b6000815190506119c181612579565b92915050565b6000813590506119d681612590565b92915050565b600082601f8301126119ed57600080fd5b81356119fd848260208601611936565b91505092915050565b600082601f830112611a1757600080fd5b8151611a27848260208601611974565b91505092915050565b600081359050611a3f816125a7565b92915050565b600060208284031215611a5757600080fd5b6000611a65848285016119b2565b91505092915050565b600060208284031215611a8057600080fd5b6000611a8e848285016119c7565b91505092915050565b600060208284031215611aa957600080fd5b600082015167ffffffffffffffff811115611ac357600080fd5b611acf84828501611a06565b91505092915050565b600060208284031215611aea57600080fd5b6000611af884828501611a30565b91505092915050565b60008060008060808587031215611b1757600080fd5b6000611b2587828801611a30565b9450506020611b3687828801611a30565b935050604085013567ffffffffffffffff811115611b5357600080fd5b611b5f878288016119dc565b9250506060611b7087828801611a30565b91505092959194509250565b6000611b888383611d53565b905092915050565b611b998161227f565b82525050565b611ba88161227f565b82525050565b6000611bb982612114565b611bc38185612137565b935083602082028501611bd585612104565b8060005b85811015611c115784840389528151611bf28582611b7c565b9450611bfd8361212a565b925060208a01995050600181019050611bd9565b50829750879550505050505092915050565b611c2c816122cd565b82525050565b6000611c3d8261211f565b611c478185612148565b9350611c57818560208601612300565b611c608161249b565b840191505092915050565b6000611c768261211f565b611c808185612159565b9350611c90818560208601612300565b611c998161249b565b840191505092915050565b6000611cb1600583612159565b9150611cbc826124ac565b602082019050919050565b6000611cd4601583612159565b9150611cdf826124d5565b602082019050919050565b6000611cf7600c83612159565b9150611d02826124fe565b602082019050919050565b6000611d1a601183612159565b9150611d2582612527565b602082019050919050565b6000611d3d600c83612159565b9150611d4882612550565b602082019050919050565b600060e083016000830151611d6b6000860182611e99565b5060208301518482036020860152611d838282611c32565b9150506040830151611d986040860182611e99565b5060608301518482036060860152611db08282611c32565b9150506080830151611dc56080860182611e99565b5060a0830151611dd860a0860182611e99565b5060c0830151611deb60c0860182611b90565b508091505092915050565b600060e083016000830151611e0e6000860182611e99565b5060208301518482036020860152611e268282611c32565b9150506040830151611e3b6040860182611e99565b5060608301518482036060860152611e538282611c32565b9150506080830151611e686080860182611e99565b5060a0830151611e7b60a0860182611e99565b5060c0830151611e8e60c0860182611b90565b508091505092915050565b611ea2816122c3565b82525050565b611eb1816122c3565b82525050565b6000606082019050611ecc6000830186611b9f565b611ed96020830185611b9f565b611ee66040830184611ea8565b949350505050565b60006020820190508181036000830152611f088184611bae565b905092915050565b6000602082019050611f256000830184611c23565b92915050565b60006020820190508181036000830152611f4481611ca4565b9050919050565b60006020820190508181036000830152611f6481611cc7565b9050919050565b60006020820190508181036000830152611f8481611cea565b9050919050565b60006020820190508181036000830152611fa481611d0d565b9050919050565b60006020820190508181036000830152611fc481611d30565b9050919050565b60006020820190508181036000830152611fe58184611df6565b905092915050565b60006020820190506120026000830184611ea8565b92915050565b600060e08201905061201d600083018a611ea8565b818103602083015261202f8189611c6b565b905061203e6040830188611ea8565b81810360608301526120508187611c6b565b905061205f6080830186611ea8565b61206c60a0830185611ea8565b61207960c0830184611b9f565b98975050505050505050565b600060408201905061209a6000830185611ea8565b6120a76020830184611ea8565b9392505050565b60006120b86120c9565b90506120c48282612365565b919050565b6000604051905090565b600067ffffffffffffffff8211156120ee576120ed61246c565b5b6120f78261249b565b9050602081019050919050565b6000819050602082019050919050565b600081519050919050565b600081519050919050565b6000602082019050919050565b600082825260208201905092915050565b600082825260208201905092915050565b600082825260208201905092915050565b6000612175826122c3565b9150612180836122c3565b9250827fffffffffffffffffffffffffffffffffffffffffffffffffffffffffffffffff038211156121b5576121b46123df565b5b828201905092915050565b60006121cb826122c3565b91506121d6836122c3565b9250826121e6576121e561240e565b5b828204905092915050565b60006121fc826122c3565b9150612207836122c3565b9250817fffffffffffffffffffffffffffffffffffffffffffffffffffffffffffffffff04831182151516156122405761223f6123df565b5b828202905092915050565b6000612256826122c3565b9150612261836122c3565b925082821015612274576122736123df565b5b828203905092915050565b600061228a826122a3565b9050919050565b600061229c826122a3565b9050919050565b600073ffffffffffffffffffffffffffffffffffffffff82169050919050565b6000819050919050565b60006122d8826122df565b9050919050565b60006122ea826122a3565b9050919050565b82818337600083830152505050565b60005b8381101561231e578082015181840152602081019050612303565b8381111561232d576000848401525b50505050565b6000600282049050600182168061234b57607f821691505b6020821081141561235f5761235e61243d565b5b50919050565b61236e8261249b565b810181811067ffffffffffffffff8211171561238d5761238c61246c565b5b80604052505050565b60006123a1826122c3565b91507fffffffffffffffffffffffffffffffffffffffffffffffffffffffffffffffff8214156123d4576123d36123df565b5b600182019050919050565b7f4e487b7100000000000000000000000000000000000000000000000000000000600052601160045260246000fd5b7f4e487b7100000000000000000000000000000000000000000000000000000000600052601260045260246000fd5b7f4e487b7100000000000000000000000000000000000000000000000000000000600052602260045260246000fd5b7f4e487b7100000000000000000000000000000000000000000000000000000000600052604160045260246000fd5b6000601f19601f8301169050919050565b7f6572726f72000000000000000000000000000000000000000000000000000000600082015250565b7f596f7520617265206e6f7420616e206f776e6572210000000000000000000000600082015250565b7f77726f6e6720616d6f756e740000000000000000000000000000000000000000600082015250565b7f4e6f7420656e6f75676820726967687473000000000000000000000000000000600082015250565b7f6e6f7420617070726f7665640000000000000000000000000000000000000000600082015250565b6125828161227f565b811461258d57600080fd5b50565b61259981612291565b81146125a457600080fd5b50565b6125b0816122c3565b81146125bb57600080fd5b5056fea26469706673582212207767e68a462872305fbe128d459f1297891a149eec90bb521587cd692029ad3e64736f6c63430008040033",
  "linkReferences": {},
  "deployedLinkReferences": {}
}