{
  "_format": "hh-sol-artifact-1",
  "contractName": "Market",
  "sourceName": "contracts/nft/Market.sol",
  "abi": [
    {
      "inputs": [
        {
          "internalType": "contract ERC721",
          "name": "_nft",
          "type": "address"
        }
      ],
      "stateMutability": "nonpayable",
      "type": "constructor"
    },
    {
      "anonymous": false,
      "inputs": [
        {
          "indexed": true,
          "internalType": "address",
          "name": "initiator",
          "type": "address"
        },
        {
          "indexed": true,
          "internalType": "uint256",
          "name": "id",
          "type": "uint256"
        },
        {
          "indexed": false,
          "internalType": "uint256",
          "name": "timestamp",
          "type": "uint256"
        }
      ],
      "name": "itemDelist",
      "type": "event"
    },
    {
      "anonymous": false,
      "inputs": [
        {
          "indexed": true,
          "internalType": "address",
          "name": "seller",
          "type": "address"
        },
        {
          "indexed": true,
          "internalType": "uint256",
          "name": "id",
          "type": "uint256"
        },
        {
          "indexed": false,
          "internalType": "uint256",
          "name": "price",
          "type": "uint256"
        },
        {
          "indexed": false,
          "internalType": "uint256",
          "name": "timestamp",
          "type": "uint256"
        }
      ],
      "name": "itemList",
      "type": "event"
    },
    {
      "anonymous": false,
      "inputs": [
        {
          "indexed": true,
          "internalType": "address",
          "name": "seller",
          "type": "address"
        },
        {
          "indexed": true,
          "internalType": "address",
          "name": "buyer",
          "type": "address"
        },
        {
          "indexed": true,
          "internalType": "uint256",
          "name": "id",
          "type": "uint256"
        },
        {
          "indexed": false,
          "internalType": "uint256",
          "name": "price",
          "type": "uint256"
        },
        {
          "indexed": false,
          "internalType": "uint256",
          "name": "timestamp",
          "type": "uint256"
        }
      ],
      "name": "itemSell",
      "type": "event"
    },
    {
      "inputs": [],
      "name": "demo",
      "outputs": [],
      "stateMutability": "nonpayable",
      "type": "function"
    },
    {
      "inputs": [],
      "name": "getList",
      "outputs": [
        {
          "internalType": "uint256[]",
          "name": "",
          "type": "uint256[]"
        }
      ],
      "stateMutability": "view",
      "type": "function"
    },
    {
      "inputs": [
        {
          "internalType": "uint256",
          "name": "index",
          "type": "uint256"
        }
      ],
      "name": "getListMap",
      "outputs": [
        {
          "internalType": "uint256",
          "name": "",
          "type": "uint256"
        }
      ],
      "stateMutability": "view",
      "type": "function"
    },
    {
      "inputs": [
        {
          "internalType": "uint256",
          "name": "",
          "type": "uint256"
        }
      ],
      "name": "items",
      "outputs": [
        {
          "internalType": "uint256",
          "name": "",
          "type": "uint256"
        }
      ],
      "stateMutability": "view",
      "type": "function"
    },
    {
      "inputs": [
        {
          "internalType": "uint256",
          "name": "",
          "type": "uint256"
        }
      ],
      "name": "itemsMap",
      "outputs": [
        {
          "internalType": "uint256",
          "name": "",
          "type": "uint256"
        }
      ],
      "stateMutability": "view",
      "type": "function"
    },
    {
      "inputs": [],
      "name": "nft",
      "outputs": [
        {
          "internalType": "contract ERC721",
          "name": "",
          "type": "address"
        }
      ],
      "stateMutability": "view",
      "type": "function"
    }
  ],
  "bytecode": "0x6080604052600a60025534801561001557600080fd5b5060405161083938038061083983398181016040528101906100379190610234565b806000806101000a81548173ffffffffffffffffffffffffffffffffffffffff021916908373ffffffffffffffffffffffffffffffffffffffff16021790555033600160006101000a81548173ffffffffffffffffffffffffffffffffffffffff021916908373ffffffffffffffffffffffffffffffffffffffff1602179055506100c66100cc60201b60201c565b506102b8565b6003600190806001815401808255809150506001900390600052602060002001600090919091909150556003600290806001815401808255809150506001900390600052602060002001600090919091909150556003808060018154018082558091505060019003906000526020600020016000909190919091505560036005908060018154018082558091505060019003906000526020600020016000909190919091505560036004908060018154018082558091505060019003906000526020600020016000909190919091505560016004600060018152602001908152602001600020819055506003600460006002815260200190815260200160002081905550607b600460006003815260200190815260200160002081905550600480600060048152602001908152602001600020819055506005600460006005815260200190815260200160002081905550565b60008151905061022e816102a1565b92915050565b60006020828403121561024657600080fd5b60006102548482850161021f565b91505092915050565b600061026882610281565b9050919050565b600061027a8261025d565b9050919050565b600073ffffffffffffffffffffffffffffffffffffffff82169050919050565b6102aa8161026f565b81146102b557600080fd5b50565b610572806102c76000396000f3fe608060405234801561001057600080fd5b50600436106100625760003560e01c806301725a0b1461006757806347ccca02146100715780637c84bf751461008f578063942b765a146100bf578063bace4b67146100dd578063bfb231d21461010d575b600080fd5b61006f61013d565b005b610079610290565b6040516100869190610468565b60405180910390f35b6100a960048036038101906100a4919061037a565b6102b4565b6040516100b69190610483565b60405180910390f35b6100c76102d1565b6040516100d49190610446565b60405180910390f35b6100f760048036038101906100f2919061037a565b610329565b6040516101049190610483565b60405180910390f35b6101276004803603810190610122919061037a565b610341565b6040516101349190610483565b60405180910390f35b6003600190806001815401808255809150506001900390600052602060002001600090919091909150556003600290806001815401808255809150506001900390600052602060002001600090919091909150556003808060018154018082558091505060019003906000526020600020016000909190919091505560036005908060018154018082558091505060019003906000526020600020016000909190919091505560036004908060018154018082558091505060019003906000526020600020016000909190919091505560016004600060018152602001908152602001600020819055506003600460006002815260200190815260200160002081905550607b600460006003815260200190815260200160002081905550600480600060048152602001908152602001600020819055506005600460006005815260200190815260200160002081905550565b60008054906101000a900473ffffffffffffffffffffffffffffffffffffffff1681565b600060046000838152602001908152602001600020549050919050565b6060600380548060200260200160405190810160405280929190818152602001828054801561031f57602002820191906000526020600020905b81548152602001906001019080831161030b575b5050505050905090565b60046020528060005260406000206000915090505481565b6003818154811061035157600080fd5b906000526020600020016000915090505481565b60008135905061037481610525565b92915050565b60006020828403121561038c57600080fd5b600061039a84828501610365565b91505092915050565b60006103af8383610428565b60208301905092915050565b60006103c6826104ae565b6103d081856104c6565b93506103db8361049e565b8060005b8381101561040c5781516103f388826103a3565b97506103fe836104b9565b9250506001810190506103df565b5085935050505092915050565b61042281610501565b82525050565b610431816104f7565b82525050565b610440816104f7565b82525050565b6000602082019050818103600083015261046081846103bb565b905092915050565b600060208201905061047d6000830184610419565b92915050565b60006020820190506104986000830184610437565b92915050565b6000819050602082019050919050565b600081519050919050565b6000602082019050919050565b600082825260208201905092915050565b600073ffffffffffffffffffffffffffffffffffffffff82169050919050565b6000819050919050565b600061050c82610513565b9050919050565b600061051e826104d7565b9050919050565b61052e816104f7565b811461053957600080fd5b5056fea264697066735822122092a3e9e718f71cf5c752e17e4a599fbc49664e1e748ffe4f331a23d582e8d6cb64736f6c63430008040033",
  "linkReferences": {},
  "deployedLinkReferences": {}
}