{
  "_format": "hh-sol-artifact-1",
  "contractName": "Demo",
  "sourceName": "contracts/Demo.sol",
  "abi": [
    {
      "inputs": [
        {
          "internalType": "string",
          "name": "_greeting",
          "type": "string"
        }
      ],
      "stateMutability": "nonpayable",
      "type": "constructor"
    },
    {
      "inputs": [],
      "name": "getBalance",
      "outputs": [
        {
          "internalType": "uint256",
          "name": "",
          "type": "uint256"
        }
      ],
      "stateMutability": "view",
      "type": "function"
    },
    {
      "inputs": [],
      "name": "receiveFunds",
      "outputs": [],
      "stateMutability": "payable",
      "type": "function"
    },
    {
      "inputs": [
        {
          "internalType": "address payable",
          "name": "_to",
          "type": "address"
        }
      ],
      "name": "withdrawFunds",
      "outputs": [],
      "stateMutability": "nonpayable",
      "type": "function"
    },
    {
      "stateMutability": "payable",
      "type": "receive"
    }
  ],
  "bytecode": "0x60806040523480156200001157600080fd5b5060405162000b9738038062000b978339818101604052810190620000379190620001ef565b6200006760405180606001604052806022815260200162000b756022913982620000ae60201b620003241760201c565b336000806101000a81548173ffffffffffffffffffffffffffffffffffffffff021916908373ffffffffffffffffffffffffffffffffffffffff16021790555050620003d7565b620001508282604051602401620000c792919062000275565b6040516020818303038152906040527f4b5c4277000000000000000000000000000000000000000000000000000000007bffffffffffffffffffffffffffffffffffffffffffffffffffffffff19166020820180517bffffffffffffffffffffffffffffffffffffffffffffffffffffffff83818316178352505050506200015460201b60201c565b5050565b60008151905060006a636f6e736f6c652e6c6f679050602083016000808483855afa5050505050565b6000620001946200018e84620002d9565b620002b0565b905082815260208101848484011115620001ad57600080fd5b620001ba8482856200032b565b509392505050565b600082601f830112620001d457600080fd5b8151620001e68482602086016200017d565b91505092915050565b6000602082840312156200020257600080fd5b600082015167ffffffffffffffff8111156200021d57600080fd5b6200022b84828501620001c2565b91505092915050565b600062000241826200030f565b6200024d81856200031a565b93506200025f8185602086016200032b565b6200026a81620003c6565b840191505092915050565b6000604082019050818103600083015262000291818562000234565b90508181036020830152620002a7818462000234565b90509392505050565b6000620002bc620002cf565b9050620002ca828262000361565b919050565b6000604051905090565b600067ffffffffffffffff821115620002f757620002f662000397565b5b6200030282620003c6565b9050602081019050919050565b600081519050919050565b600082825260208201905092915050565b60005b838110156200034b5780820151818401526020810190506200032e565b838111156200035b576000848401525b50505050565b6200036c82620003c6565b810181811067ffffffffffffffff821117156200038e576200038d62000397565b5b80604052505050565b7f4e487b7100000000000000000000000000000000000000000000000000000000600052604160045260246000fd5b6000601f19601f8301169050919050565b61078e80620003e76000396000f3fe6080604052600436106100375760003560e01c80625c33e11461008257806312065fe01461008c57806368742da6146100b75761007d565b3661007d5761007b6040518060400160405280601381526020017f45617379206d6f6e65792c207468616e6b732000000000000000000000000000815250336100e0565b005b600080fd5b61008a61017c565b005b34801561009857600080fd5b506100a16101bd565b6040516100ae9190610626565b60405180910390f35b3480156100c357600080fd5b506100de60048036038101906100d99190610497565b6101c5565b005b61017882826040516024016100f692919061057f565b6040516020818303038152906040527f319af333000000000000000000000000000000000000000000000000000000007bffffffffffffffffffffffffffffffffffffffffffffffffffffffff19166020820180517bffffffffffffffffffffffffffffffffffffffffffffffffffffffff83818316178352505050506103c0565b5050565b6101bb6040518060400160405280601381526020017f45617379206d6f6e65792c207468616e6b732000000000000000000000000000815250336100e0565b565b600047905090565b60008054906101000a900473ffffffffffffffffffffffffffffffffffffffff1673ffffffffffffffffffffffffffffffffffffffff163373ffffffffffffffffffffffffffffffffffffffff1614610253576040517f08c379a000000000000000000000000000000000000000000000000000000000815260040161024a90610606565b60405180910390fd5b60004711610296576040517f08c379a000000000000000000000000000000000000000000000000000000000815260040161028d906105e6565b60405180910390fd5b60004790508173ffffffffffffffffffffffffffffffffffffffff166108fc829081150290604051600060405180830381858888f193505050501580156102e1573d6000803e3d6000fd5b506103206040518060400160405280600981526020017f4b207061706520455a00000000000000000000000000000000000000000000008152506103e9565b5050565b6103bc828260405160240161033a9291906105af565b6040516020818303038152906040527f4b5c4277000000000000000000000000000000000000000000000000000000007bffffffffffffffffffffffffffffffffffffffffffffffffffffffff19166020820180517bffffffffffffffffffffffffffffffffffffffffffffffffffffffff83818316178352505050506103c0565b5050565b60008151905060006a636f6e736f6c652e6c6f679050602083016000808483855afa5050505050565b61047f816040516024016103fd919061055d565b6040516020818303038152906040527f41304fac000000000000000000000000000000000000000000000000000000007bffffffffffffffffffffffffffffffffffffffffffffffffffffffff19166020820180517bffffffffffffffffffffffffffffffffffffffffffffffffffffffff83818316178352505050506103c0565b50565b60008135905061049181610741565b92915050565b6000602082840312156104a957600080fd5b60006104b784828501610482565b91505092915050565b6104c98161065d565b82525050565b60006104da82610641565b6104e4818561064c565b93506104f48185602086016106ab565b6104fd816106de565b840191505092915050565b600061051560088361064c565b9150610520826106ef565b602082019050919050565b600061053860118361064c565b915061054382610718565b602082019050919050565b610557816106a1565b82525050565b6000602082019050818103600083015261057781846104cf565b905092915050565b6000604082019050818103600083015261059981856104cf565b90506105a860208301846104c0565b9392505050565b600060408201905081810360008301526105c981856104cf565b905081810360208301526105dd81846104cf565b90509392505050565b600060208201905081810360008301526105ff81610508565b9050919050565b6000602082019050818103600083015261061f8161052b565b9050919050565b600060208201905061063b600083018461054e565b92915050565b600081519050919050565b600082825260208201905092915050565b600061066882610681565b9050919050565b600061067a82610681565b9050919050565b600073ffffffffffffffffffffffffffffffffffffffff82169050919050565b6000819050919050565b60005b838110156106c95780820151818401526020810190506106ae565b838111156106d8576000848401525b50505050565b6000601f19601f8301169050919050565b7f6e6f2066756e6473000000000000000000000000000000000000000000000000600082015250565b7f596f7520617265206e6f74206f776e6572000000000000000000000000000000600082015250565b61074a8161066f565b811461075557600080fd5b5056fea2646970667358221220135d034c5a32d8e845e3d14b7b986a4c47932c8167ec092d8dfa2216ccd6c98864736f6c634300080400334465706c6f79696e67206120477265657465722077697468206772656574696e673a",
  "linkReferences": {},
  "deployedLinkReferences": {}
}