{
  "_format": "hh-sol-artifact-1",
  "contractName": "Crowdsale",
  "sourceName": "contracts/CrowdSale.sol",
  "abi": [
    {
      "inputs": [
        {
          "internalType": "uint256",
          "name": "_rate",
          "type": "uint256"
        },
        {
          "internalType": "address",
          "name": "_wallet",
          "type": "address"
        },
        {
          "internalType": "contract NToken",
          "name": "_token",
          "type": "address"
        }
      ],
      "stateMutability": "nonpayable",
      "type": "constructor"
    },
    {
      "anonymous": false,
      "inputs": [
        {
          "indexed": true,
          "internalType": "address",
          "name": "purchaser",
          "type": "address"
        },
        {
          "indexed": true,
          "internalType": "address",
          "name": "beneficiary",
          "type": "address"
        },
        {
          "indexed": false,
          "internalType": "uint256",
          "name": "value",
          "type": "uint256"
        },
        {
          "indexed": false,
          "internalType": "uint256",
          "name": "amount",
          "type": "uint256"
        }
      ],
      "name": "TokenPurchase",
      "type": "event"
    },
    {
      "inputs": [
        {
          "internalType": "address",
          "name": "_beneficiary",
          "type": "address"
        }
      ],
      "name": "buyTokens",
      "outputs": [],
      "stateMutability": "payable",
      "type": "function"
    },
    {
      "inputs": [],
      "name": "rate",
      "outputs": [
        {
          "internalType": "uint256",
          "name": "",
          "type": "uint256"
        }
      ],
      "stateMutability": "view",
      "type": "function"
    },
    {
      "inputs": [],
      "name": "receiveFunds",
      "outputs": [],
      "stateMutability": "payable",
      "type": "function"
    },
    {
      "inputs": [],
      "name": "token",
      "outputs": [
        {
          "internalType": "contract NToken",
          "name": "",
          "type": "address"
        }
      ],
      "stateMutability": "view",
      "type": "function"
    },
    {
      "inputs": [],
      "name": "wallet",
      "outputs": [
        {
          "internalType": "address",
          "name": "",
          "type": "address"
        }
      ],
      "stateMutability": "view",
      "type": "function"
    },
    {
      "inputs": [],
      "name": "weiRaised",
      "outputs": [
        {
          "internalType": "uint256",
          "name": "",
          "type": "uint256"
        }
      ],
      "stateMutability": "view",
      "type": "function"
    },
    {
      "stateMutability": "payable",
      "type": "receive"
    }
  ],
  "bytecode": "0x60806040523480156200001157600080fd5b5060405162000a9538038062000a95833981810160405281019062000037919062000191565b600083116200004557600080fd5b600073ffffffffffffffffffffffffffffffffffffffff168273ffffffffffffffffffffffffffffffffffffffff1614156200008057600080fd5b600073ffffffffffffffffffffffffffffffffffffffff168173ffffffffffffffffffffffffffffffffffffffff161415620000bb57600080fd5b8260028190555081600160006101000a81548173ffffffffffffffffffffffffffffffffffffffff021916908373ffffffffffffffffffffffffffffffffffffffff160217905550806000806101000a81548173ffffffffffffffffffffffffffffffffffffffff021916908373ffffffffffffffffffffffffffffffffffffffff16021790555050505062000287565b6000815190506200015d8162000239565b92915050565b600081519050620001748162000253565b92915050565b6000815190506200018b816200026d565b92915050565b600080600060608486031215620001a757600080fd5b6000620001b7868287016200017a565b9350506020620001ca868287016200014c565b9250506040620001dd8682870162000163565b9150509250925092565b6000620001f4826200020f565b9050919050565b60006200020882620001e7565b9050919050565b600073ffffffffffffffffffffffffffffffffffffffff82169050919050565b6000819050919050565b6200024481620001e7565b81146200025057600080fd5b50565b6200025e81620001fb565b81146200026a57600080fd5b50565b62000278816200022f565b81146200028457600080fd5b50565b6107fe80620002976000396000f3fe6080604052600436106100585760003560e01c80625c33e11461006d5780632c4e722e146100775780634042b66f146100a2578063521eb273146100cd578063ec8ac4d8146100f8578063fc0c546a1461011457610068565b36610068576100663361013f565b005b600080fd5b6100756101f4565b005b34801561008357600080fd5b5061008c6101ff565b60405161009991906105ab565b60405180910390f35b3480156100ae57600080fd5b506100b7610205565b6040516100c491906105ab565b60405180910390f35b3480156100d957600080fd5b506100e261020b565b6040516100ef919061054c565b60405180910390f35b610112600480360381019061010d91906104cd565b61013f565b005b34801561012057600080fd5b50610129610231565b6040516101369190610590565b60405180910390f35b600034905061014e8282610255565b6000610159826102a1565b9050610170826003546102bf90919063ffffffff16565b6003819055506101808382610311565b8273ffffffffffffffffffffffffffffffffffffffff163373ffffffffffffffffffffffffffffffffffffffff167f623b3804fa71d67900d064613da8f94b9617215ee90799290593e1745087ad1884846040516101df9291906105c6565b60405180910390a36101ef6103c3565b505050565b6101fd3361013f565b565b60025481565b60035481565b600160009054906101000a900473ffffffffffffffffffffffffffffffffffffffff1681565b60008054906101000a900473ffffffffffffffffffffffffffffffffffffffff1681565b600073ffffffffffffffffffffffffffffffffffffffff168273ffffffffffffffffffffffffffffffffffffffff16141561028f57600080fd5b600081141561029d57600080fd5b5050565b60006102b86002548361043490919063ffffffff16565b9050919050565b60008082846102ce91906105ef565b905083811015610307577f4e487b7100000000000000000000000000000000000000000000000000000000600052600160045260246000fd5b8091505092915050565b60008054906101000a900473ffffffffffffffffffffffffffffffffffffffff1673ffffffffffffffffffffffffffffffffffffffff1663a9059cbb83836040518363ffffffff1660e01b815260040161036c929190610567565b602060405180830381600087803b15801561038657600080fd5b505af115801561039a573d6000803e3d6000fd5b505050506040513d601f19601f820116820180604052508101906103be91906104f6565b505050565b6000600160009054906101000a900473ffffffffffffffffffffffffffffffffffffffff1690508073ffffffffffffffffffffffffffffffffffffffff166108fc349081150290604051600060405180830381858888f19350505050158015610430573d6000803e3d6000fd5b5050565b600080831415610447576000905061049d565b600082846104559190610676565b90508284826104649190610645565b14610498577f4e487b7100000000000000000000000000000000000000000000000000000000600052600160045260246000fd5b809150505b92915050565b6000813590506104b28161079a565b92915050565b6000815190506104c7816107b1565b92915050565b6000602082840312156104df57600080fd5b60006104ed848285016104a3565b91505092915050565b60006020828403121561050857600080fd5b6000610516848285016104b8565b91505092915050565b610528816106d0565b82525050565b61053781610718565b82525050565b6105468161070e565b82525050565b6000602082019050610561600083018461051f565b92915050565b600060408201905061057c600083018561051f565b610589602083018461053d565b9392505050565b60006020820190506105a5600083018461052e565b92915050565b60006020820190506105c0600083018461053d565b92915050565b60006040820190506105db600083018561053d565b6105e8602083018461053d565b9392505050565b60006105fa8261070e565b91506106058361070e565b9250827fffffffffffffffffffffffffffffffffffffffffffffffffffffffffffffffff0382111561063a5761063961073c565b5b828201905092915050565b60006106508261070e565b915061065b8361070e565b92508261066b5761066a61076b565b5b828204905092915050565b60006106818261070e565b915061068c8361070e565b9250817fffffffffffffffffffffffffffffffffffffffffffffffffffffffffffffffff04831182151516156106c5576106c461073c565b5b828202905092915050565b60006106db826106ee565b9050919050565b60008115159050919050565b600073ffffffffffffffffffffffffffffffffffffffff82169050919050565b6000819050919050565b60006107238261072a565b9050919050565b6000610735826106ee565b9050919050565b7f4e487b7100000000000000000000000000000000000000000000000000000000600052601160045260246000fd5b7f4e487b7100000000000000000000000000000000000000000000000000000000600052601260045260246000fd5b6107a3816106d0565b81146107ae57600080fd5b50565b6107ba816106e2565b81146107c557600080fd5b5056fea2646970667358221220882df1bb630532986b0dd8e72534284b1aa87a1042634eebeb36a61d81ae674464736f6c63430008040033",
  "linkReferences": {},
  "deployedLinkReferences": {}
}